{
	"_format": "hh-sol-artifact-1",
	"contractName": "Crowdfunding",
	"sourceName": "contracts/Crowdfunding.sol",
	"abi": [
		{
			"inputs": [
				{
					"internalType": "contract IERC20",
					"name": "tokenAddress",
					"type": "address"
				},
				{
					"internalType": "address",
					"name": "initialOwner",
					"type": "address"
				},
				{
					"internalType": "address",
					"name": "escrowAddress",
					"type": "address"
				}
			],
			"stateMutability": "nonpayable",
			"type": "constructor"
		},
		{
			"inputs": [
				{
					"internalType": "address",
					"name": "owner",
					"type": "address"
				}
			],
			"name": "OwnableInvalidOwner",
			"type": "error"
		},
		{
			"inputs": [
				{
					"internalType": "address",
					"name": "account",
					"type": "address"
				}
			],
			"name": "OwnableUnauthorizedAccount",
			"type": "error"
		},
		{
			"anonymous": false,
			"inputs": [
				{
					"indexed": true,
					"internalType": "uint256",
					"name": "projectId",
					"type": "uint256"
				},
				{
					"indexed": false,
					"internalType": "uint256",
					"name": "amount",
					"type": "uint256"
				},
				{
					"indexed": false,
					"internalType": "address",
					"name": "contributor",
					"type": "address"
				}
			],
			"name": "ContributionMade",
			"type": "event"
		},
		{
			"anonymous": false,
			"inputs": [
				{
					"indexed": true,
					"internalType": "uint256",
					"name": "projectId",
					"type": "uint256"
				},
				{
					"indexed": false,
					"internalType": "uint256",
					"name": "amount",
					"type": "uint256"
				},
				{
					"indexed": false,
					"internalType": "address",
					"name": "contributor",
					"type": "address"
				}
			],
			"name": "ContributionRefunded",
			"type": "event"
		},
		{
			"anonymous": false,
			"inputs": [
				{
					"indexed": true,
					"internalType": "address",
					"name": "previousOwner",
					"type": "address"
				},
				{
					"indexed": true,
					"internalType": "address",
					"name": "newOwner",
					"type": "address"
				}
			],
			"name": "OwnershipTransferred",
			"type": "event"
		},
		{
			"anonymous": false,
			"inputs": [
				{
					"indexed": true,
					"internalType": "uint256",
					"name": "projectId",
					"type": "uint256"
				},
				{
					"indexed": false,
					"internalType": "string",
					"name": "title",
					"type": "string"
				},
				{
					"indexed": false,
					"internalType": "address",
					"name": "owner",
					"type": "address"
				}
			],
			"name": "ProjectCreated",
			"type": "event"
		},
		{
			"inputs": [
				{
					"internalType": "uint256",
					"name": "projectId",
					"type": "uint256"
				},
				{
					"internalType": "uint256",
					"name": "amount",
					"type": "uint256"
				}
			],
			"name": "contribute",
			"outputs": [],
			"stateMutability": "nonpayable",
			"type": "function"
		},
		{
			"inputs": [
				{
					"internalType": "uint256",
					"name": "",
					"type": "uint256"
				},
				{
					"internalType": "address",
					"name": "",
					"type": "address"
				}
			],
			"name": "contributions",
			"outputs": [
				{
					"internalType": "uint256",
					"name": "",
					"type": "uint256"
				}
			],
			"stateMutability": "view",
			"type": "function"
		},
		{
			"inputs": [
				{
					"internalType": "string",
					"name": "title",
					"type": "string"
				},
				{
					"internalType": "uint256",
					"name": "targetFunding",
					"type": "uint256"
				},
				{
					"internalType": "uint256",
					"name": "startDate",
					"type": "uint256"
				},
				{
					"internalType": "uint256",
					"name": "endDate",
					"type": "uint256"
				}
			],
			"name": "createProject",
			"outputs": [],
			"stateMutability": "nonpayable",
			"type": "function"
		},
		{
			"inputs": [
				{
					"internalType": "uint256",
					"name": "projectId",
					"type": "uint256"
				}
			],
			"name": "deleteProject",
			"outputs": [],
			"stateMutability": "nonpayable",
			"type": "function"
		},
		{
			"inputs": [
				{
					"internalType": "uint256",
					"name": "projectId",
					"type": "uint256"
				},
				{
					"internalType": "string",
					"name": "title",
					"type": "string"
				},
				{
					"internalType": "uint256",
					"name": "targetFunding",
					"type": "uint256"
				},
				{
					"internalType": "uint256",
					"name": "startDate",
					"type": "uint256"
				},
				{
					"internalType": "uint256",
					"name": "endDate",
					"type": "uint256"
				}
			],
			"name": "editProject",
			"outputs": [],
			"stateMutability": "nonpayable",
			"type": "function"
		},
		{
			"inputs": [],
			"name": "getAllProjects",
			"outputs": [
				{
					"internalType": "uint256[]",
					"name": "",
					"type": "uint256[]"
				}
			],
			"stateMutability": "view",
			"type": "function"
		},
		{
			"inputs": [
				{
					"internalType": "uint256",
					"name": "projectId",
					"type": "uint256"
				}
			],
			"name": "getProject",
			"outputs": [
				{
					"components": [
						{
							"internalType": "uint256",
							"name": "id",
							"type": "uint256"
						},
						{
							"internalType": "string",
							"name": "title",
							"type": "string"
						},
						{
							"internalType": "uint256",
							"name": "targetFunding",
							"type": "uint256"
						},
						{
							"internalType": "uint256",
							"name": "currentFunding",
							"type": "uint256"
						},
						{
							"internalType": "uint256",
							"name": "startDate",
							"type": "uint256"
						},
						{
							"internalType": "uint256",
							"name": "endDate",
							"type": "uint256"
						},
						{
							"internalType": "address",
							"name": "owner",
							"type": "address"
						},
						{
							"internalType": "enum Crowdfunding.STATUS",
							"name": "status",
							"type": "uint8"
						}
					],
					"internalType": "struct Crowdfunding.Project",
					"name": "",
					"type": "tuple"
				}
			],
			"stateMutability": "view",
			"type": "function"
		},
		{
			"inputs": [],
			"name": "owner",
			"outputs": [
				{
					"internalType": "address",
					"name": "",
					"type": "address"
				}
			],
			"stateMutability": "view",
			"type": "function"
		},
		{
			"inputs": [
				{
					"internalType": "uint256",
					"name": "",
					"type": "uint256"
				}
			],
			"name": "projects",
			"outputs": [
				{
					"internalType": "uint256",
					"name": "id",
					"type": "uint256"
				},
				{
					"internalType": "string",
					"name": "title",
					"type": "string"
				},
				{
					"internalType": "uint256",
					"name": "targetFunding",
					"type": "uint256"
				},
				{
					"internalType": "uint256",
					"name": "currentFunding",
					"type": "uint256"
				},
				{
					"internalType": "uint256",
					"name": "startDate",
					"type": "uint256"
				},
				{
					"internalType": "uint256",
					"name": "endDate",
					"type": "uint256"
				},
				{
					"internalType": "address",
					"name": "owner",
					"type": "address"
				},
				{
					"internalType": "enum Crowdfunding.STATUS",
					"name": "status",
					"type": "uint8"
				}
			],
			"stateMutability": "view",
			"type": "function"
		},
		{
			"inputs": [
				{
					"internalType": "uint256",
					"name": "projectId",
					"type": "uint256"
				}
			],
			"name": "refund",
			"outputs": [],
			"stateMutability": "nonpayable",
			"type": "function"
		},
		{
			"inputs": [],
			"name": "renounceOwnership",
			"outputs": [],
			"stateMutability": "nonpayable",
			"type": "function"
		},
		{
			"inputs": [
				{
					"internalType": "address",
					"name": "newOwner",
					"type": "address"
				}
			],
			"name": "transferOwnership",
			"outputs": [],
			"stateMutability": "nonpayable",
			"type": "function"
		}
	],
	"bytecode": "0x608060405234801562000010575f80fd5b5060405162002310380380620023108339818101604052810190620000369190620002ad565b815f73ffffffffffffffffffffffffffffffffffffffff168173ffffffffffffffffffffffffffffffffffffffff1603620000aa575f6040517f1e4fbdf7000000000000000000000000000000000000000000000000000000008152600401620000a1919062000317565b60405180910390fd5b620000bb816200014560201b60201c565b508260015f6101000a81548173ffffffffffffffffffffffffffffffffffffffff021916908373ffffffffffffffffffffffffffffffffffffffff1602179055508060025f6101000a81548173ffffffffffffffffffffffffffffffffffffffff021916908373ffffffffffffffffffffffffffffffffffffffff16021790555050505062000332565b5f805f9054906101000a900473ffffffffffffffffffffffffffffffffffffffff169050815f806101000a81548173ffffffffffffffffffffffffffffffffffffffff021916908373ffffffffffffffffffffffffffffffffffffffff1602179055508173ffffffffffffffffffffffffffffffffffffffff168173ffffffffffffffffffffffffffffffffffffffff167f8be0079c531659141344cd1fd0a4f28419497f9722a3daafe3b4186f6b6457e060405160405180910390a35050565b5f80fd5b5f73ffffffffffffffffffffffffffffffffffffffff82169050919050565b5f62000235826200020a565b9050919050565b5f620002488262000229565b9050919050565b6200025a816200023c565b811462000265575f80fd5b50565b5f8151905062000278816200024f565b92915050565b620002898162000229565b811462000294575f80fd5b50565b5f81519050620002a7816200027e565b92915050565b5f805f60608486031215620002c757620002c662000206565b5b5f620002d68682870162000268565b9350506020620002e98682870162000297565b9250506040620002fc8682870162000297565b9150509250925092565b620003118162000229565b82525050565b5f6020820190506200032c5f83018462000306565b92915050565b611fd080620003405f395ff3fe608060405234801561000f575f80fd5b50600436106100b2575f3560e01c806380d038291161006f57806380d038291461017b5780638c590917146101995780638da5cb5b146101b5578063930770dd146101d3578063f0f3f2c8146101ef578063f2fde38b1461021f576100b2565b8063107046bd146100b6578063278ecde1146100ed5780633d891f59146101095780634cd0cb2814610139578063610a6a2a14610155578063715018a614610171575b5f80fd5b6100d060048036038101906100cb91906110dd565b61023b565b6040516100e4989796959493929190611253565b60405180910390f35b610107600480360381019061010291906110dd565b610331565b005b610123600480360381019061011e9190611300565b610524565b604051610130919061133e565b60405180910390f35b610153600480360381019061014e91906110dd565b610544565b005b61016f600480360381019061016a9190611483565b610625565b005b6101796107b5565b005b6101836107c8565b60405161019091906115ba565b60405180910390f35b6101b360048036038101906101ae91906115da565b610888565b005b6101bd610bad565b6040516101ca9190611618565b60405180910390f35b6101ed60048036038101906101e89190611631565b610bd4565b005b610209600480360381019061020491906110dd565b610ce3565b60405161021691906117d7565b60405180910390f35b610239600480360381019061023491906117f7565b610e60565b005b6004602052805f5260405f205f91509050805f0154908060010180546102609061184f565b80601f016020809104026020016040519081016040528092919081815260200182805461028c9061184f565b80156102d75780601f106102ae576101008083540402835291602001916102d7565b820191905f5260205f20905b8154815290600101906020018083116102ba57829003601f168201915b505050505090806002015490806003015490806004015490806005015490806006015f9054906101000a900473ffffffffffffffffffffffffffffffffffffffff16908060060160149054906101000a900460ff16905088565b5f60045f8381526020019081526020015f209050600380811115610358576103576111e0565b5b8160060160149054906101000a900460ff16600381111561037c5761037b6111e0565b5b148061038b5750806005015442115b6103ca576040517f08c379a00000000000000000000000000000000000000000000000000000000081526004016103c1906118c9565b60405180910390fd5b5f60055f8481526020019081526020015f205f3373ffffffffffffffffffffffffffffffffffffffff1673ffffffffffffffffffffffffffffffffffffffff1681526020019081526020015f205490505f811161045c576040517f08c379a000000000000000000000000000000000000000000000000000000000815260040161045390611931565b60405180910390fd5b60025f9054906101000a900473ffffffffffffffffffffffffffffffffffffffff1673ffffffffffffffffffffffffffffffffffffffff16634edd781e84336040518363ffffffff1660e01b81526004016104b892919061194f565b5f604051808303815f87803b1580156104cf575f80fd5b505af11580156104e1573d5f803e3d5ffd5b50505050827f232bf2213879e79f5b2fa9cf07aad94aa0acac7b3c93bdfe74a545d47a1b0275823360405161051792919061194f565b60405180910390a2505050565b6005602052815f5260405f20602052805f5260405f205f91509150505481565b60045f8281526020019081526020015f206006015f9054906101000a900473ffffffffffffffffffffffffffffffffffffffff1673ffffffffffffffffffffffffffffffffffffffff163373ffffffffffffffffffffffffffffffffffffffff16146105e5576040517f08c379a00000000000000000000000000000000000000000000000000000000081526004016105dc906119e6565b60405180910390fd5b600160045f8381526020019081526020015f2060060160146101000a81548160ff0219169083600381111561061d5761061c6111e0565b5b021790555050565b60035f81548092919061063790611a31565b91905055505f60035490506040518061010001604052808281526020018681526020018581526020015f81526020018481526020018381526020013373ffffffffffffffffffffffffffffffffffffffff1681526020015f60038111156106a1576106a06111e0565b5b81525060045f8381526020019081526020015f205f820151815f015560208201518160010190816106d29190611c15565b5060408201518160020155606082015181600301556080820151816004015560a0820151816005015560c0820151816006015f6101000a81548173ffffffffffffffffffffffffffffffffffffffff021916908373ffffffffffffffffffffffffffffffffffffffff16021790555060e08201518160060160146101000a81548160ff0219169083600381111561076c5761076b6111e0565b5b0217905550905050807fc0c54fed07481d0998e1446b2c13759606bf4f26b78306307413ac4c4309aa8286336040516107a6929190611ce4565b60405180910390a25050505050565b6107bd610ee4565b6107c65f610f6b565b565b60605f60035490505f8167ffffffffffffffff8111156107eb576107ea61135f565b5b6040519080825280602002602001820160405280156108195781602001602082028036833780820191505090505b5090505f80600190505b83811161087e5760045f8281526020019081526020015f205f015483838151811061085157610850611d12565b5b602002602001018181525050818061086890611a31565b925050808061087690611a31565b915050610823565b5081935050505090565b5f60045f8481526020019081526020015f2090505f60038111156108af576108ae6111e0565b5b8160060160149054906101000a900460ff1660038111156108d3576108d26111e0565b5b14610913576040517f08c379a000000000000000000000000000000000000000000000000000000000815260040161090a90611d89565b60405180910390fd5b8060040154421015801561092b575080600501544211155b61096a576040517f08c379a000000000000000000000000000000000000000000000000000000000815260040161096190611df1565b60405180910390fd5b60015f9054906101000a900473ffffffffffffffffffffffffffffffffffffffff1673ffffffffffffffffffffffffffffffffffffffff166323b872dd3360025f9054906101000a900473ffffffffffffffffffffffffffffffffffffffff16856040518463ffffffff1660e01b81526004016109e993929190611e0f565b6020604051808303815f875af1158015610a05573d5f803e3d5ffd5b505050506040513d601f19601f82011682018060405250810190610a299190611e79565b5060025f9054906101000a900473ffffffffffffffffffffffffffffffffffffffff1673ffffffffffffffffffffffffffffffffffffffff1663c3ad7da68433856040518463ffffffff1660e01b8152600401610a8893929190611ea4565b5f604051808303815f87803b158015610a9f575f80fd5b505af1158015610ab1573d5f803e3d5ffd5b5050505081816003015f828254610ac89190611ed9565b925050819055508160055f8581526020019081526020015f205f3373ffffffffffffffffffffffffffffffffffffffff1673ffffffffffffffffffffffffffffffffffffffff1681526020019081526020015f205f828254610b2a9190611ed9565b92505081905550827f7c50e76f3eff5098fcf915218e219a359f40f4c150e1a6796920587d44923cb48333604051610b6392919061194f565b60405180910390a28060020154816003015410610ba85760028160060160146101000a81548160ff02191690836003811115610ba257610ba16111e0565b5b02179055505b505050565b5f805f9054906101000a900473ffffffffffffffffffffffffffffffffffffffff16905090565b60045f8681526020019081526020015f206006015f9054906101000a900473ffffffffffffffffffffffffffffffffffffffff1673ffffffffffffffffffffffffffffffffffffffff163373ffffffffffffffffffffffffffffffffffffffff1614610c75576040517f08c379a0000000000000000000000000000000000000000000000000000000008152600401610c6c90611f7c565b60405180910390fd5b5f60045f8781526020019081526020015f2090505f85511115610ca55784816001019081610ca39190611c15565b505b5f841115610cb7578381600201819055505b5f831115610cc9578281600401819055505b5f821115610cdb578181600501819055505b505050505050565b610ceb611033565b60045f8381526020019081526020015f20604051806101000160405290815f8201548152602001600182018054610d219061184f565b80601f0160208091040260200160405190810160405280929190818152602001828054610d4d9061184f565b8015610d985780601f10610d6f57610100808354040283529160200191610d98565b820191905f5260205f20905b815481529060010190602001808311610d7b57829003601f168201915b5050505050815260200160028201548152602001600382015481526020016004820154815260200160058201548152602001600682015f9054906101000a900473ffffffffffffffffffffffffffffffffffffffff1673ffffffffffffffffffffffffffffffffffffffff1673ffffffffffffffffffffffffffffffffffffffff1681526020016006820160149054906101000a900460ff166003811115610e4357610e426111e0565b5b6003811115610e5557610e546111e0565b5b815250509050919050565b610e68610ee4565b5f73ffffffffffffffffffffffffffffffffffffffff168173ffffffffffffffffffffffffffffffffffffffff1603610ed8575f6040517f1e4fbdf7000000000000000000000000000000000000000000000000000000008152600401610ecf9190611618565b60405180910390fd5b610ee181610f6b565b50565b610eec61102c565b73ffffffffffffffffffffffffffffffffffffffff16610f0a610bad565b73ffffffffffffffffffffffffffffffffffffffff1614610f6957610f2d61102c565b6040517f118cdaa7000000000000000000000000000000000000000000000000000000008152600401610f609190611618565b60405180910390fd5b565b5f805f9054906101000a900473ffffffffffffffffffffffffffffffffffffffff169050815f806101000a81548173ffffffffffffffffffffffffffffffffffffffff021916908373ffffffffffffffffffffffffffffffffffffffff1602179055508173ffffffffffffffffffffffffffffffffffffffff168173ffffffffffffffffffffffffffffffffffffffff167f8be0079c531659141344cd1fd0a4f28419497f9722a3daafe3b4186f6b6457e060405160405180910390a35050565b5f33905090565b6040518061010001604052805f8152602001606081526020015f81526020015f81526020015f81526020015f81526020015f73ffffffffffffffffffffffffffffffffffffffff1681526020015f6003811115611093576110926111e0565b5b81525090565b5f604051905090565b5f80fd5b5f80fd5b5f819050919050565b6110bc816110aa565b81146110c6575f80fd5b50565b5f813590506110d7816110b3565b92915050565b5f602082840312156110f2576110f16110a2565b5b5f6110ff848285016110c9565b91505092915050565b611111816110aa565b82525050565b5f81519050919050565b5f82825260208201905092915050565b5f5b8381101561114e578082015181840152602081019050611133565b5f8484015250505050565b5f601f19601f8301169050919050565b5f61117382611117565b61117d8185611121565b935061118d818560208601611131565b61119681611159565b840191505092915050565b5f73ffffffffffffffffffffffffffffffffffffffff82169050919050565b5f6111ca826111a1565b9050919050565b6111da816111c0565b82525050565b7f4e487b71000000000000000000000000000000000000000000000000000000005f52602160045260245ffd5b6004811061121e5761121d6111e0565b5b50565b5f81905061122e8261120d565b919050565b5f61123d82611221565b9050919050565b61124d81611233565b82525050565b5f610100820190506112675f83018b611108565b8181036020830152611279818a611169565b90506112886040830189611108565b6112956060830188611108565b6112a26080830187611108565b6112af60a0830186611108565b6112bc60c08301856111d1565b6112c960e0830184611244565b9998505050505050505050565b6112df816111c0565b81146112e9575f80fd5b50565b5f813590506112fa816112d6565b92915050565b5f8060408385031215611316576113156110a2565b5b5f611323858286016110c9565b9250506020611334858286016112ec565b9150509250929050565b5f6020820190506113515f830184611108565b92915050565b5f80fd5b5f80fd5b7f4e487b71000000000000000000000000000000000000000000000000000000005f52604160045260245ffd5b61139582611159565b810181811067ffffffffffffffff821117156113b4576113b361135f565b5b80604052505050565b5f6113c6611099565b90506113d2828261138c565b919050565b5f67ffffffffffffffff8211156113f1576113f061135f565b5b6113fa82611159565b9050602081019050919050565b828183375f83830152505050565b5f611427611422846113d7565b6113bd565b9050828152602081018484840111156114435761144261135b565b5b61144e848285611407565b509392505050565b5f82601f83011261146a57611469611357565b5b813561147a848260208601611415565b91505092915050565b5f805f806080858703121561149b5761149a6110a2565b5b5f85013567ffffffffffffffff8111156114b8576114b76110a6565b5b6114c487828801611456565b94505060206114d5878288016110c9565b93505060406114e6878288016110c9565b92505060606114f7878288016110c9565b91505092959194509250565b5f81519050919050565b5f82825260208201905092915050565b5f819050602082019050919050565b611535816110aa565b82525050565b5f611546838361152c565b60208301905092915050565b5f602082019050919050565b5f61156882611503565b611572818561150d565b935061157d8361151d565b805f5b838110156115ad578151611594888261153b565b975061159f83611552565b925050600181019050611580565b5085935050505092915050565b5f6020820190508181035f8301526115d2818461155e565b905092915050565b5f80604083850312156115f0576115ef6110a2565b5b5f6115fd858286016110c9565b925050602061160e858286016110c9565b9150509250929050565b5f60208201905061162b5f8301846111d1565b92915050565b5f805f805f60a0868803121561164a576116496110a2565b5b5f611657888289016110c9565b955050602086013567ffffffffffffffff811115611678576116776110a6565b5b61168488828901611456565b9450506040611695888289016110c9565b93505060606116a6888289016110c9565b92505060806116b7888289016110c9565b9150509295509295909350565b5f82825260208201905092915050565b5f6116de82611117565b6116e881856116c4565b93506116f8818560208601611131565b61170181611159565b840191505092915050565b611715816111c0565b82525050565b61172481611233565b82525050565b5f61010083015f8301516117405f86018261152c565b506020830151848203602086015261175882826116d4565b915050604083015161176d604086018261152c565b506060830151611780606086018261152c565b506080830151611793608086018261152c565b5060a08301516117a660a086018261152c565b5060c08301516117b960c086018261170c565b5060e08301516117cc60e086018261171b565b508091505092915050565b5f6020820190508181035f8301526117ef818461172a565b905092915050565b5f6020828403121561180c5761180b6110a2565b5b5f611819848285016112ec565b91505092915050565b7f4e487b71000000000000000000000000000000000000000000000000000000005f52602260045260245ffd5b5f600282049050600182168061186657607f821691505b60208210810361187957611878611822565b5b50919050565b7f526566756e6473206e6f7420616c6c6f776564000000000000000000000000005f82015250565b5f6118b3601383611121565b91506118be8261187f565b602082019050919050565b5f6020820190508181035f8301526118e0816118a7565b9050919050565b7f4e6f20636f6e747269627574696f6e7320746f20726566756e640000000000005f82015250565b5f61191b601a83611121565b9150611926826118e7565b602082019050919050565b5f6020820190508181035f8301526119488161190f565b9050919050565b5f6040820190506119625f830185611108565b61196f60208301846111d1565b9392505050565b7f4f6e6c7920746865206f776e65722063616e2064656c657465207468652070725f8201527f6f6a6563742e0000000000000000000000000000000000000000000000000000602082015250565b5f6119d0602683611121565b91506119db82611976565b604082019050919050565b5f6020820190508181035f8301526119fd816119c4565b9050919050565b7f4e487b71000000000000000000000000000000000000000000000000000000005f52601160045260245ffd5b5f611a3b826110aa565b91507fffffffffffffffffffffffffffffffffffffffffffffffffffffffffffffffff8203611a6d57611a6c611a04565b5b600182019050919050565b5f819050815f5260205f209050919050565b5f6020601f8301049050919050565b5f82821b905092915050565b5f60088302611ad47fffffffffffffffffffffffffffffffffffffffffffffffffffffffffffffffff82611a99565b611ade8683611a99565b95508019841693508086168417925050509392505050565b5f819050919050565b5f611b19611b14611b0f846110aa565b611af6565b6110aa565b9050919050565b5f819050919050565b611b3283611aff565b611b46611b3e82611b20565b848454611aa5565b825550505050565b5f90565b611b5a611b4e565b611b65818484611b29565b505050565b5b81811015611b8857611b7d5f82611b52565b600181019050611b6b565b5050565b601f821115611bcd57611b9e81611a78565b611ba784611a8a565b81016020851015611bb6578190505b611bca611bc285611a8a565b830182611b6a565b50505b505050565b5f82821c905092915050565b5f611bed5f1984600802611bd2565b1980831691505092915050565b5f611c058383611bde565b9150826002028217905092915050565b611c1e82611117565b67ffffffffffffffff811115611c3757611c3661135f565b5b611c41825461184f565b611c4c828285611b8c565b5f60209050601f831160018114611c7d575f8415611c6b578287015190505b611c758582611bfa565b865550611cdc565b601f198416611c8b86611a78565b5f5b82811015611cb257848901518255600182019150602085019450602081019050611c8d565b86831015611ccf5784890151611ccb601f891682611bde565b8355505b6001600288020188555050505b505050505050565b5f6040820190508181035f830152611cfc8185611169565b9050611d0b60208301846111d1565b9392505050565b7f4e487b71000000000000000000000000000000000000000000000000000000005f52603260045260245ffd5b7f50726f6a656374206d75737420626520616374697665000000000000000000005f82015250565b5f611d73601683611121565b9150611d7e82611d3f565b602082019050919050565b5f6020820190508181035f830152611da081611d67565b9050919050565b7f50726f6a656374206e6f7420696e2066756e64696e6720706572696f640000005f82015250565b5f611ddb601d83611121565b9150611de682611da7565b602082019050919050565b5f6020820190508181035f830152611e0881611dcf565b9050919050565b5f606082019050611e225f8301866111d1565b611e2f60208301856111d1565b611e3c6040830184611108565b949350505050565b5f8115159050919050565b611e5881611e44565b8114611e62575f80fd5b50565b5f81519050611e7381611e4f565b92915050565b5f60208284031215611e8e57611e8d6110a2565b5b5f611e9b84828501611e65565b91505092915050565b5f606082019050611eb75f830186611108565b611ec460208301856111d1565b611ed16040830184611108565b949350505050565b5f611ee3826110aa565b9150611eee836110aa565b9250828201905080821115611f0657611f05611a04565b5b92915050565b7f4f6e6c7920746865206f776e65722063616e2065646974207468652070726f6a5f8201527f6563742e00000000000000000000000000000000000000000000000000000000602082015250565b5f611f66602483611121565b9150611f7182611f0c565b604082019050919050565b5f6020820190508181035f830152611f9381611f5a565b905091905056fea2646970667358221220f2ee675299f1f944cdf7c5756ed9ce4209d3ef498dfb00352d976cfd3687b3fe64736f6c63430008140033",
	"linkReferences": {},
	"deployedLinkReferences": {}
}