{
	"_format": "hh-sol-artifact-1",
	"contractName": "Crowdfunding",
	"sourceName": "contracts/Crowdfunding.sol",
	"abi": [
		{
			"inputs": [
				{
					"internalType": "contract IERC20",
					"name": "tokenAddress",
					"type": "address"
				},
				{
					"internalType": "address",
					"name": "initialOwner",
					"type": "address"
				},
				{
					"internalType": "address",
					"name": "escrowAddress",
					"type": "address"
				}
			],
			"stateMutability": "nonpayable",
			"type": "constructor"
		},
		{
			"inputs": [
				{
					"internalType": "address",
					"name": "owner",
					"type": "address"
				}
			],
			"name": "OwnableInvalidOwner",
			"type": "error"
		},
		{
			"inputs": [
				{
					"internalType": "address",
					"name": "account",
					"type": "address"
				}
			],
			"name": "OwnableUnauthorizedAccount",
			"type": "error"
		},
		{
			"anonymous": false,
			"inputs": [
				{
					"indexed": true,
					"internalType": "uint256",
					"name": "projectId",
					"type": "uint256"
				},
				{
					"indexed": false,
					"internalType": "uint256",
					"name": "amount",
					"type": "uint256"
				},
				{
					"indexed": false,
					"internalType": "address",
					"name": "contributor",
					"type": "address"
				}
			],
			"name": "ContributionMade",
			"type": "event"
		},
		{
			"anonymous": false,
			"inputs": [
				{
					"indexed": true,
					"internalType": "uint256",
					"name": "projectId",
					"type": "uint256"
				},
				{
					"indexed": false,
					"internalType": "uint256",
					"name": "amount",
					"type": "uint256"
				},
				{
					"indexed": false,
					"internalType": "address",
					"name": "contributor",
					"type": "address"
				}
			],
			"name": "ContributionRefunded",
			"type": "event"
		},
		{
			"anonymous": false,
			"inputs": [
				{
					"indexed": true,
					"internalType": "address",
					"name": "previousOwner",
					"type": "address"
				},
				{
					"indexed": true,
					"internalType": "address",
					"name": "newOwner",
					"type": "address"
				}
			],
			"name": "OwnershipTransferred",
			"type": "event"
		},
		{
			"anonymous": false,
			"inputs": [
				{
					"indexed": true,
					"internalType": "uint256",
					"name": "projectId",
					"type": "uint256"
				},
				{
					"indexed": false,
					"internalType": "string",
					"name": "title",
					"type": "string"
				},
				{
					"indexed": false,
					"internalType": "address",
					"name": "owner",
					"type": "address"
				}
			],
			"name": "ProjectCreated",
			"type": "event"
		},
		{
			"inputs": [
				{
					"internalType": "uint256",
					"name": "projectId",
					"type": "uint256"
				},
				{
					"internalType": "uint256",
					"name": "amount",
					"type": "uint256"
				}
			],
			"name": "contribute",
			"outputs": [],
			"stateMutability": "nonpayable",
			"type": "function"
		},
		{
			"inputs": [
				{
					"internalType": "uint256",
					"name": "",
					"type": "uint256"
				},
				{
					"internalType": "address",
					"name": "",
					"type": "address"
				}
			],
			"name": "contributions",
			"outputs": [
				{
					"internalType": "uint256",
					"name": "",
					"type": "uint256"
				}
			],
			"stateMutability": "view",
			"type": "function"
		},
		{
			"inputs": [
				{
					"internalType": "string",
					"name": "title",
					"type": "string"
				},
				{
					"internalType": "uint256",
					"name": "targetFunding",
					"type": "uint256"
				},
				{
					"internalType": "uint256",
					"name": "startDate",
					"type": "uint256"
				},
				{
					"internalType": "uint256",
					"name": "endDate",
					"type": "uint256"
				}
			],
			"name": "createProject",
			"outputs": [
				{
					"components": [
						{
							"internalType": "uint256",
							"name": "id",
							"type": "uint256"
						},
						{
							"internalType": "string",
							"name": "title",
							"type": "string"
						},
						{
							"internalType": "uint256",
							"name": "targetFunding",
							"type": "uint256"
						},
						{
							"internalType": "uint256",
							"name": "currentFunding",
							"type": "uint256"
						},
						{
							"internalType": "uint256",
							"name": "startDate",
							"type": "uint256"
						},
						{
							"internalType": "uint256",
							"name": "endDate",
							"type": "uint256"
						},
						{
							"internalType": "address",
							"name": "owner",
							"type": "address"
						},
						{
							"internalType": "enum Crowdfunding.STATUS",
							"name": "status",
							"type": "uint8"
						},
						{
							"internalType": "uint256",
							"name": "count_contributors",
							"type": "uint256"
						}
					],
					"internalType": "struct Crowdfunding.Project",
					"name": "",
					"type": "tuple"
				}
			],
			"stateMutability": "nonpayable",
			"type": "function"
		},
		{
			"inputs": [
				{
					"internalType": "uint256",
					"name": "projectId",
					"type": "uint256"
				}
			],
			"name": "deleteProject",
			"outputs": [],
			"stateMutability": "nonpayable",
			"type": "function"
		},
		{
			"inputs": [
				{
					"internalType": "uint256",
					"name": "projectId",
					"type": "uint256"
				},
				{
					"internalType": "string",
					"name": "title",
					"type": "string"
				},
				{
					"internalType": "uint256",
					"name": "targetFunding",
					"type": "uint256"
				},
				{
					"internalType": "uint256",
					"name": "startDate",
					"type": "uint256"
				},
				{
					"internalType": "uint256",
					"name": "endDate",
					"type": "uint256"
				}
			],
			"name": "editProject",
			"outputs": [],
			"stateMutability": "nonpayable",
			"type": "function"
		},
		{
			"inputs": [
				{
					"internalType": "uint256",
					"name": "projectId",
					"type": "uint256"
				}
			],
			"name": "finalizeProject",
			"outputs": [],
			"stateMutability": "nonpayable",
			"type": "function"
		},
		{
			"inputs": [],
			"name": "getAllProjects",
			"outputs": [
				{
					"components": [
						{
							"internalType": "uint256",
							"name": "id",
							"type": "uint256"
						},
						{
							"internalType": "string",
							"name": "title",
							"type": "string"
						},
						{
							"internalType": "uint256",
							"name": "targetFunding",
							"type": "uint256"
						},
						{
							"internalType": "uint256",
							"name": "currentFunding",
							"type": "uint256"
						},
						{
							"internalType": "uint256",
							"name": "startDate",
							"type": "uint256"
						},
						{
							"internalType": "uint256",
							"name": "endDate",
							"type": "uint256"
						},
						{
							"internalType": "address",
							"name": "owner",
							"type": "address"
						},
						{
							"internalType": "enum Crowdfunding.STATUS",
							"name": "status",
							"type": "uint8"
						},
						{
							"internalType": "uint256",
							"name": "count_contributors",
							"type": "uint256"
						}
					],
					"internalType": "struct Crowdfunding.Project[]",
					"name": "",
					"type": "tuple[]"
				}
			],
			"stateMutability": "view",
			"type": "function"
		},
		{
			"inputs": [
				{
					"internalType": "uint256",
					"name": "projectId",
					"type": "uint256"
				}
			],
			"name": "getProject",
			"outputs": [
				{
					"components": [
						{
							"internalType": "uint256",
							"name": "id",
							"type": "uint256"
						},
						{
							"internalType": "string",
							"name": "title",
							"type": "string"
						},
						{
							"internalType": "uint256",
							"name": "targetFunding",
							"type": "uint256"
						},
						{
							"internalType": "uint256",
							"name": "currentFunding",
							"type": "uint256"
						},
						{
							"internalType": "uint256",
							"name": "startDate",
							"type": "uint256"
						},
						{
							"internalType": "uint256",
							"name": "endDate",
							"type": "uint256"
						},
						{
							"internalType": "address",
							"name": "owner",
							"type": "address"
						},
						{
							"internalType": "enum Crowdfunding.STATUS",
							"name": "status",
							"type": "uint8"
						},
						{
							"internalType": "uint256",
							"name": "count_contributors",
							"type": "uint256"
						}
					],
					"internalType": "struct Crowdfunding.Project",
					"name": "",
					"type": "tuple"
				}
			],
			"stateMutability": "view",
			"type": "function"
		},
		{
			"inputs": [],
			"name": "owner",
			"outputs": [
				{
					"internalType": "address",
					"name": "",
					"type": "address"
				}
			],
			"stateMutability": "view",
			"type": "function"
		},
		{
			"inputs": [
				{
					"internalType": "uint256",
					"name": "",
					"type": "uint256"
				}
			],
			"name": "projects",
			"outputs": [
				{
					"internalType": "uint256",
					"name": "id",
					"type": "uint256"
				},
				{
					"internalType": "string",
					"name": "title",
					"type": "string"
				},
				{
					"internalType": "uint256",
					"name": "targetFunding",
					"type": "uint256"
				},
				{
					"internalType": "uint256",
					"name": "currentFunding",
					"type": "uint256"
				},
				{
					"internalType": "uint256",
					"name": "startDate",
					"type": "uint256"
				},
				{
					"internalType": "uint256",
					"name": "endDate",
					"type": "uint256"
				},
				{
					"internalType": "address",
					"name": "owner",
					"type": "address"
				},
				{
					"internalType": "enum Crowdfunding.STATUS",
					"name": "status",
					"type": "uint8"
				},
				{
					"internalType": "uint256",
					"name": "count_contributors",
					"type": "uint256"
				}
			],
			"stateMutability": "view",
			"type": "function"
		},
		{
			"inputs": [
				{
					"internalType": "uint256",
					"name": "projectId",
					"type": "uint256"
				}
			],
			"name": "refund",
			"outputs": [],
			"stateMutability": "nonpayable",
			"type": "function"
		},
		{
			"inputs": [],
			"name": "renounceOwnership",
			"outputs": [],
			"stateMutability": "nonpayable",
			"type": "function"
		},
		{
			"inputs": [
				{
					"internalType": "address",
					"name": "newOwner",
					"type": "address"
				}
			],
			"name": "transferOwnership",
			"outputs": [],
			"stateMutability": "nonpayable",
			"type": "function"
		}
	],
	"bytecode": "0x608060405234801562000010575f80fd5b50604051620028bd380380620028bd8339818101604052810190620000369190620002ad565b815f73ffffffffffffffffffffffffffffffffffffffff168173ffffffffffffffffffffffffffffffffffffffff1603620000aa575f6040517f1e4fbdf7000000000000000000000000000000000000000000000000000000008152600401620000a1919062000317565b60405180910390fd5b620000bb816200014560201b60201c565b508260015f6101000a81548173ffffffffffffffffffffffffffffffffffffffff021916908373ffffffffffffffffffffffffffffffffffffffff1602179055508060025f6101000a81548173ffffffffffffffffffffffffffffffffffffffff021916908373ffffffffffffffffffffffffffffffffffffffff16021790555050505062000332565b5f805f9054906101000a900473ffffffffffffffffffffffffffffffffffffffff169050815f806101000a81548173ffffffffffffffffffffffffffffffffffffffff021916908373ffffffffffffffffffffffffffffffffffffffff1602179055508173ffffffffffffffffffffffffffffffffffffffff168173ffffffffffffffffffffffffffffffffffffffff167f8be0079c531659141344cd1fd0a4f28419497f9722a3daafe3b4186f6b6457e060405160405180910390a35050565b5f80fd5b5f73ffffffffffffffffffffffffffffffffffffffff82169050919050565b5f62000235826200020a565b9050919050565b5f620002488262000229565b9050919050565b6200025a816200023c565b811462000265575f80fd5b50565b5f8151905062000278816200024f565b92915050565b620002898162000229565b811462000294575f80fd5b50565b5f81519050620002a7816200027e565b92915050565b5f805f60608486031215620002c757620002c662000206565b5b5f620002d68682870162000268565b9350506020620002e98682870162000297565b9250506040620002fc8682870162000297565b9150509250925092565b620003118162000229565b82525050565b5f6020820190506200032c5f83018462000306565b92915050565b61257d80620003405f395ff3fe608060405234801561000f575f80fd5b50600436106100cd575f3560e01c8063715018a61161008a5780638da5cb5b116100645780638da5cb5b14610201578063930770dd1461021f578063f0f3f2c81461023b578063f2fde38b1461026b576100cd565b8063715018a6146101bd57806380d03829146101c75780638c590917146101e5576100cd565b8063107046bd146100d1578063278ecde1146101095780633d891f59146101255780634cd0cb28146101555780634d798de514610171578063610a6a2a1461018d575b5f80fd5b6100eb60048036038101906100e69190611556565b610287565b604051610100999897969594939291906116cc565b60405180910390f35b610123600480360381019061011e9190611556565b610383565b005b61013f600480360381019061013a9190611788565b61057f565b60405161014c91906117c6565b60405180910390f35b61016f600480360381019061016a9190611556565b61059f565b005b61018b60048036038101906101869190611556565b610689565b005b6101a760048036038101906101a2919061190b565b6108db565b6040516101b49190611ac2565b60405180910390f35b6101c5610af0565b005b6101cf610b03565b6040516101dc9190611c5f565b60405180910390f35b6101ff60048036038101906101fa9190611c7f565b610d31565b005b610209610f9f565b6040516102169190611cbd565b60405180910390f35b61023960048036038101906102349190611cd6565b610fc6565b005b61025560048036038101906102509190611556565b6110de565b6040516102629190611ac2565b60405180910390f35b61028560048036038101906102809190611d69565b611265565b005b6004602052805f5260405f205f91509050805f0154908060010180546102ac90611dc1565b80601f01602080910402602001604051908101604052809291908181526020018280546102d890611dc1565b80156103235780601f106102fa57610100808354040283529160200191610323565b820191905f5260205f20905b81548152906001019060200180831161030657829003601f168201915b505050505090806002015490806003015490806004015490806005015490806006015f9054906101000a900473ffffffffffffffffffffffffffffffffffffffff16908060060160149054906101000a900460ff16908060070154905089565b61038c816112e9565b5f60045f8381526020019081526020015f2090506003808111156103b3576103b2611659565b5b8160060160149054906101000a900460ff1660038111156103d7576103d6611659565b5b14806103e65750806005015442115b610425576040517f08c379a000000000000000000000000000000000000000000000000000000000815260040161041c90611e3b565b60405180910390fd5b5f60055f8481526020019081526020015f205f3373ffffffffffffffffffffffffffffffffffffffff1673ffffffffffffffffffffffffffffffffffffffff1681526020019081526020015f205490505f81116104b7576040517f08c379a00000000000000000000000000000000000000000000000000000000081526004016104ae90611ea3565b60405180910390fd5b60025f9054906101000a900473ffffffffffffffffffffffffffffffffffffffff1673ffffffffffffffffffffffffffffffffffffffff16634edd781e84336040518363ffffffff1660e01b8152600401610513929190611ec1565b5f604051808303815f87803b15801561052a575f80fd5b505af115801561053c573d5f803e3d5ffd5b50505050827f232bf2213879e79f5b2fa9cf07aad94aa0acac7b3c93bdfe74a545d47a1b02758233604051610572929190611ec1565b60405180910390a2505050565b6005602052815f5260405f20602052805f5260405f205f91509150505481565b6105a8816112e9565b60045f8281526020019081526020015f206006015f9054906101000a900473ffffffffffffffffffffffffffffffffffffffff1673ffffffffffffffffffffffffffffffffffffffff163373ffffffffffffffffffffffffffffffffffffffff1614610649576040517f08c379a000000000000000000000000000000000000000000000000000000000815260040161064090611f58565b60405180910390fd5b600160045f8381526020019081526020015f2060060160146101000a81548160ff0219169083600381111561068157610680611659565b5b021790555050565b5f60045f8381526020019081526020015f209050806005015442116106e3576040517f08c379a00000000000000000000000000000000000000000000000000000000081526004016106da90611fc0565b60405180910390fd5b5f60038111156106f6576106f5611659565b5b8160060160149054906101000a900460ff16600381111561071a57610719611659565b5b1461075a576040517f08c379a000000000000000000000000000000000000000000000000000000000815260040161075190612028565b60405180910390fd5b80600201548160030154106108225760028160060160146101000a81548160ff0219169083600381111561079157610790611659565b5b021790555060025f9054906101000a900473ffffffffffffffffffffffffffffffffffffffff1673ffffffffffffffffffffffffffffffffffffffff16634062a442836040518263ffffffff1660e01b81526004016107f091906117c6565b5f604051808303815f87803b158015610807575f80fd5b505af1158015610819573d5f803e3d5ffd5b505050506108d7565b60038160060160146101000a81548160ff0219169083600381111561084a57610849611659565b5b021790555060025f9054906101000a900473ffffffffffffffffffffffffffffffffffffffff1673ffffffffffffffffffffffffffffffffffffffff16638fe967aa836040518263ffffffff1660e01b81526004016108a991906117c6565b5f604051808303815f87803b1580156108c0575f80fd5b505af11580156108d2573d5f803e3d5ffd5b505050505b5050565b6108e36114a6565b60035f8154809291906108f590612073565b91905055505f60035490506040518061012001604052808281526020018781526020018681526020015f81526020018581526020018481526020013373ffffffffffffffffffffffffffffffffffffffff1681526020015f600381111561095f5761095e611659565b5b81526020015f81525060045f8381526020019081526020015f205f820151815f015560208201518160010190816109969190612257565b5060408201518160020155606082015181600301556080820151816004015560a0820151816005015560c0820151816006015f6101000a81548173ffffffffffffffffffffffffffffffffffffffff021916908373ffffffffffffffffffffffffffffffffffffffff16021790555060e08201518160060160146101000a81548160ff02191690836003811115610a3057610a2f611659565b5b02179055506101008201518160070155905050807fc0c54fed07481d0998e1446b2c13759606bf4f26b78306307413ac4c4309aa828733604051610a75929190612326565b60405180910390a26040518061012001604052808281526020018781526020018681526020015f81526020018581526020018481526020013373ffffffffffffffffffffffffffffffffffffffff1681526020015f6003811115610adc57610adb611659565b5b81526020015f815250915050949350505050565b610af8611357565b610b015f6113de565b565b60605f60035490505f8167ffffffffffffffff811115610b2657610b256117e7565b5b604051908082528060200260200182016040528015610b5f57816020015b610b4c6114a6565b815260200190600190039081610b445790505b5090505f80600190505b838111610d275760045f8281526020019081526020015f20604051806101200160405290815f8201548152602001600182018054610ba690611dc1565b80601f0160208091040260200160405190810160405280929190818152602001828054610bd290611dc1565b8015610c1d5780601f10610bf457610100808354040283529160200191610c1d565b820191905f5260205f20905b815481529060010190602001808311610c0057829003601f168201915b5050505050815260200160028201548152602001600382015481526020016004820154815260200160058201548152602001600682015f9054906101000a900473ffffffffffffffffffffffffffffffffffffffff1673ffffffffffffffffffffffffffffffffffffffff1673ffffffffffffffffffffffffffffffffffffffff1681526020016006820160149054906101000a900460ff166003811115610cc857610cc7611659565b5b6003811115610cda57610cd9611659565b5b8152602001600782015481525050838381518110610cfb57610cfa612354565b5b60200260200101819052508180610d1190612073565b9250508080610d1f90612073565b915050610b69565b5081935050505090565b610d3a826112e9565b5f60045f8481526020019081526020015f2090505f6003811115610d6157610d60611659565b5b8160060160149054906101000a900460ff166003811115610d8557610d84611659565b5b14610dc5576040517f08c379a0000000000000000000000000000000000000000000000000000000008152600401610dbc906123cb565b60405180910390fd5b80600401544210158015610ddd575080600501544211155b610e1c576040517f08c379a0000000000000000000000000000000000000000000000000000000008152600401610e1390612433565b60405180910390fd5b60025f9054906101000a900473ffffffffffffffffffffffffffffffffffffffff1673ffffffffffffffffffffffffffffffffffffffff1663c3ad7da68433856040518463ffffffff1660e01b8152600401610e7a93929190612451565b5f604051808303815f87803b158015610e91575f80fd5b505af1158015610ea3573d5f803e3d5ffd5b5050505081816003015f828254610eba9190612486565b925050819055508160055f8581526020019081526020015f205f3373ffffffffffffffffffffffffffffffffffffffff1673ffffffffffffffffffffffffffffffffffffffff1681526020019081526020015f205f828254610f1c9190612486565b92505081905550827f7c50e76f3eff5098fcf915218e219a359f40f4c150e1a6796920587d44923cb48333604051610f55929190611ec1565b60405180910390a28060020154816003015410610f9a5760028160060160146101000a81548160ff02191690836003811115610f9457610f93611659565b5b02179055505b505050565b5f805f9054906101000a900473ffffffffffffffffffffffffffffffffffffffff16905090565b610fcf856112e9565b60045f8681526020019081526020015f206006015f9054906101000a900473ffffffffffffffffffffffffffffffffffffffff1673ffffffffffffffffffffffffffffffffffffffff163373ffffffffffffffffffffffffffffffffffffffff1614611070576040517f08c379a000000000000000000000000000000000000000000000000000000000815260040161106790612529565b60405180910390fd5b5f60045f8781526020019081526020015f2090505f855111156110a0578481600101908161109e9190612257565b505b5f8411156110b2578381600201819055505b5f8311156110c4578281600401819055505b5f8211156110d6578181600501819055505b505050505050565b6110e66114a6565b60045f8381526020019081526020015f20604051806101200160405290815f820154815260200160018201805461111c90611dc1565b80601f016020809104026020016040519081016040528092919081815260200182805461114890611dc1565b80156111935780601f1061116a57610100808354040283529160200191611193565b820191905f5260205f20905b81548152906001019060200180831161117657829003601f168201915b5050505050815260200160028201548152602001600382015481526020016004820154815260200160058201548152602001600682015f9054906101000a900473ffffffffffffffffffffffffffffffffffffffff1673ffffffffffffffffffffffffffffffffffffffff1673ffffffffffffffffffffffffffffffffffffffff1681526020016006820160149054906101000a900460ff16600381111561123e5761123d611659565b5b60038111156112505761124f611659565b5b81526020016007820154815250509050919050565b61126d611357565b5f73ffffffffffffffffffffffffffffffffffffffff168173ffffffffffffffffffffffffffffffffffffffff16036112dd575f6040517f1e4fbdf70000000000000000000000000000000000000000000000000000000081526004016112d49190611cbd565b60405180910390fd5b6112e6816113de565b50565b5f60045f8381526020019081526020015f20905080600501544211801561134457505f600381111561131e5761131d611659565b5b8160060160149054906101000a900460ff16600381111561134257611341611659565b5b145b156113535761135282610689565b5b5050565b61135f61149f565b73ffffffffffffffffffffffffffffffffffffffff1661137d610f9f565b73ffffffffffffffffffffffffffffffffffffffff16146113dc576113a061149f565b6040517f118cdaa70000000000000000000000000000000000000000000000000000000081526004016113d39190611cbd565b60405180910390fd5b565b5f805f9054906101000a900473ffffffffffffffffffffffffffffffffffffffff169050815f806101000a81548173ffffffffffffffffffffffffffffffffffffffff021916908373ffffffffffffffffffffffffffffffffffffffff1602179055508173ffffffffffffffffffffffffffffffffffffffff168173ffffffffffffffffffffffffffffffffffffffff167f8be0079c531659141344cd1fd0a4f28419497f9722a3daafe3b4186f6b6457e060405160405180910390a35050565b5f33905090565b6040518061012001604052805f8152602001606081526020015f81526020015f81526020015f81526020015f81526020015f73ffffffffffffffffffffffffffffffffffffffff1681526020015f600381111561150657611505611659565b5b81526020015f81525090565b5f604051905090565b5f80fd5b5f80fd5b5f819050919050565b61153581611523565b811461153f575f80fd5b50565b5f813590506115508161152c565b92915050565b5f6020828403121561156b5761156a61151b565b5b5f61157884828501611542565b91505092915050565b61158a81611523565b82525050565b5f81519050919050565b5f82825260208201905092915050565b5f5b838110156115c75780820151818401526020810190506115ac565b5f8484015250505050565b5f601f19601f8301169050919050565b5f6115ec82611590565b6115f6818561159a565b93506116068185602086016115aa565b61160f816115d2565b840191505092915050565b5f73ffffffffffffffffffffffffffffffffffffffff82169050919050565b5f6116438261161a565b9050919050565b61165381611639565b82525050565b7f4e487b71000000000000000000000000000000000000000000000000000000005f52602160045260245ffd5b6004811061169757611696611659565b5b50565b5f8190506116a782611686565b919050565b5f6116b68261169a565b9050919050565b6116c6816116ac565b82525050565b5f610120820190506116e05f83018c611581565b81810360208301526116f2818b6115e2565b9050611701604083018a611581565b61170e6060830189611581565b61171b6080830188611581565b61172860a0830187611581565b61173560c083018661164a565b61174260e08301856116bd565b611750610100830184611581565b9a9950505050505050505050565b61176781611639565b8114611771575f80fd5b50565b5f813590506117828161175e565b92915050565b5f806040838503121561179e5761179d61151b565b5b5f6117ab85828601611542565b92505060206117bc85828601611774565b9150509250929050565b5f6020820190506117d95f830184611581565b92915050565b5f80fd5b5f80fd5b7f4e487b71000000000000000000000000000000000000000000000000000000005f52604160045260245ffd5b61181d826115d2565b810181811067ffffffffffffffff8211171561183c5761183b6117e7565b5b80604052505050565b5f61184e611512565b905061185a8282611814565b919050565b5f67ffffffffffffffff821115611879576118786117e7565b5b611882826115d2565b9050602081019050919050565b828183375f83830152505050565b5f6118af6118aa8461185f565b611845565b9050828152602081018484840111156118cb576118ca6117e3565b5b6118d684828561188f565b509392505050565b5f82601f8301126118f2576118f16117df565b5b813561190284826020860161189d565b91505092915050565b5f805f80608085870312156119235761192261151b565b5b5f85013567ffffffffffffffff8111156119405761193f61151f565b5b61194c878288016118de565b945050602061195d87828801611542565b935050604061196e87828801611542565b925050606061197f87828801611542565b91505092959194509250565b61199481611523565b82525050565b5f82825260208201905092915050565b5f6119b482611590565b6119be818561199a565b93506119ce8185602086016115aa565b6119d7816115d2565b840191505092915050565b6119eb81611639565b82525050565b6119fa816116ac565b82525050565b5f61012083015f830151611a165f86018261198b565b5060208301518482036020860152611a2e82826119aa565b9150506040830151611a43604086018261198b565b506060830151611a56606086018261198b565b506080830151611a69608086018261198b565b5060a0830151611a7c60a086018261198b565b5060c0830151611a8f60c08601826119e2565b5060e0830151611aa260e08601826119f1565b50610100830151611ab761010086018261198b565b508091505092915050565b5f6020820190508181035f830152611ada8184611a00565b905092915050565b5f81519050919050565b5f82825260208201905092915050565b5f819050602082019050919050565b5f61012083015f830151611b215f86018261198b565b5060208301518482036020860152611b3982826119aa565b9150506040830151611b4e604086018261198b565b506060830151611b61606086018261198b565b506080830151611b74608086018261198b565b5060a0830151611b8760a086018261198b565b5060c0830151611b9a60c08601826119e2565b5060e0830151611bad60e08601826119f1565b50610100830151611bc261010086018261198b565b508091505092915050565b5f611bd88383611b0b565b905092915050565b5f602082019050919050565b5f611bf682611ae2565b611c008185611aec565b935083602082028501611c1285611afc565b805f5b85811015611c4d5784840389528151611c2e8582611bcd565b9450611c3983611be0565b925060208a01995050600181019050611c15565b50829750879550505050505092915050565b5f6020820190508181035f830152611c778184611bec565b905092915050565b5f8060408385031215611c9557611c9461151b565b5b5f611ca285828601611542565b9250506020611cb385828601611542565b9150509250929050565b5f602082019050611cd05f83018461164a565b92915050565b5f805f805f60a08688031215611cef57611cee61151b565b5b5f611cfc88828901611542565b955050602086013567ffffffffffffffff811115611d1d57611d1c61151f565b5b611d29888289016118de565b9450506040611d3a88828901611542565b9350506060611d4b88828901611542565b9250506080611d5c88828901611542565b9150509295509295909350565b5f60208284031215611d7e57611d7d61151b565b5b5f611d8b84828501611774565b91505092915050565b7f4e487b71000000000000000000000000000000000000000000000000000000005f52602260045260245ffd5b5f6002820490506001821680611dd857607f821691505b602082108103611deb57611dea611d94565b5b50919050565b7f526566756e6473206e6f7420616c6c6f776564000000000000000000000000005f82015250565b5f611e2560138361159a565b9150611e3082611df1565b602082019050919050565b5f6020820190508181035f830152611e5281611e19565b9050919050565b7f4e6f20636f6e747269627574696f6e7320746f20726566756e640000000000005f82015250565b5f611e8d601a8361159a565b9150611e9882611e59565b602082019050919050565b5f6020820190508181035f830152611eba81611e81565b9050919050565b5f604082019050611ed45f830185611581565b611ee1602083018461164a565b9392505050565b7f4f6e6c7920746865206f776e65722063616e2064656c657465207468652070725f8201527f6f6a6563742e0000000000000000000000000000000000000000000000000000602082015250565b5f611f4260268361159a565b9150611f4d82611ee8565b604082019050919050565b5f6020820190508181035f830152611f6f81611f36565b9050919050565b7f50726f6a656374206973207374696c6c206f6e676f696e6700000000000000005f82015250565b5f611faa60188361159a565b9150611fb582611f76565b602082019050919050565b5f6020820190508181035f830152611fd781611f9e565b9050919050565b7f50726f6a656374206973206e6f742061637469766500000000000000000000005f82015250565b5f61201260158361159a565b915061201d82611fde565b602082019050919050565b5f6020820190508181035f83015261203f81612006565b9050919050565b7f4e487b71000000000000000000000000000000000000000000000000000000005f52601160045260245ffd5b5f61207d82611523565b91507fffffffffffffffffffffffffffffffffffffffffffffffffffffffffffffffff82036120af576120ae612046565b5b600182019050919050565b5f819050815f5260205f209050919050565b5f6020601f8301049050919050565b5f82821b905092915050565b5f600883026121167fffffffffffffffffffffffffffffffffffffffffffffffffffffffffffffffff826120db565b61212086836120db565b95508019841693508086168417925050509392505050565b5f819050919050565b5f61215b61215661215184611523565b612138565b611523565b9050919050565b5f819050919050565b61217483612141565b61218861218082612162565b8484546120e7565b825550505050565b5f90565b61219c612190565b6121a781848461216b565b505050565b5b818110156121ca576121bf5f82612194565b6001810190506121ad565b5050565b601f82111561220f576121e0816120ba565b6121e9846120cc565b810160208510156121f8578190505b61220c612204856120cc565b8301826121ac565b50505b505050565b5f82821c905092915050565b5f61222f5f1984600802612214565b1980831691505092915050565b5f6122478383612220565b9150826002028217905092915050565b61226082611590565b67ffffffffffffffff811115612279576122786117e7565b5b6122838254611dc1565b61228e8282856121ce565b5f60209050601f8311600181146122bf575f84156122ad578287015190505b6122b7858261223c565b86555061231e565b601f1984166122cd866120ba565b5f5b828110156122f4578489015182556001820191506020850194506020810190506122cf565b86831015612311578489015161230d601f891682612220565b8355505b6001600288020188555050505b505050505050565b5f6040820190508181035f83015261233e81856115e2565b905061234d602083018461164a565b9392505050565b7f4e487b71000000000000000000000000000000000000000000000000000000005f52603260045260245ffd5b7f50726f6a656374206d75737420626520616374697665000000000000000000005f82015250565b5f6123b560168361159a565b91506123c082612381565b602082019050919050565b5f6020820190508181035f8301526123e2816123a9565b9050919050565b7f50726f6a656374206e6f7420696e2066756e64696e6720706572696f640000005f82015250565b5f61241d601d8361159a565b9150612428826123e9565b602082019050919050565b5f6020820190508181035f83015261244a81612411565b9050919050565b5f6060820190506124645f830186611581565b612471602083018561164a565b61247e6040830184611581565b949350505050565b5f61249082611523565b915061249b83611523565b92508282019050808211156124b3576124b2612046565b5b92915050565b7f4f6e6c7920746865206f776e65722063616e2065646974207468652070726f6a5f8201527f6563742e00000000000000000000000000000000000000000000000000000000602082015250565b5f61251360248361159a565b915061251e826124b9565b604082019050919050565b5f6020820190508181035f83015261254081612507565b905091905056fea2646970667358221220ca16502b73b9a6a246d0bd3db4f065570374a86eef7cc5c51f440e58a9b7d8d964736f6c63430008140033",
	"linkReferences": {},
	"deployedLinkReferences": {}
}