{
	"_format": "hh-sol-artifact-1",
	"contractName": "MockCrowdfunding",
	"sourceName": "contracts/MockCrowdfunding.sol",
	"abi": [
		{
			"anonymous": false,
			"inputs": [
				{
					"indexed": true,
					"internalType": "uint256",
					"name": "projectId",
					"type": "uint256"
				},
				{
					"indexed": false,
					"internalType": "uint256",
					"name": "amount",
					"type": "uint256"
				},
				{
					"indexed": false,
					"internalType": "address",
					"name": "contributor",
					"type": "address"
				}
			],
			"name": "ContributionMade",
			"type": "event"
		},
		{
			"anonymous": false,
			"inputs": [
				{
					"indexed": true,
					"internalType": "uint256",
					"name": "projectId",
					"type": "uint256"
				},
				{
					"indexed": false,
					"internalType": "uint256",
					"name": "amount",
					"type": "uint256"
				},
				{
					"indexed": false,
					"internalType": "address",
					"name": "contributor",
					"type": "address"
				}
			],
			"name": "ContributionRefunded",
			"type": "event"
		},
		{
			"anonymous": false,
			"inputs": [
				{
					"indexed": true,
					"internalType": "uint256",
					"name": "projectId",
					"type": "uint256"
				},
				{
					"indexed": false,
					"internalType": "string",
					"name": "title",
					"type": "string"
				},
				{
					"indexed": false,
					"internalType": "address",
					"name": "owner",
					"type": "address"
				}
			],
			"name": "ProjectCreated",
			"type": "event"
		},
		{
			"inputs": [
				{
					"internalType": "uint256",
					"name": "",
					"type": "uint256"
				},
				{
					"internalType": "address",
					"name": "",
					"type": "address"
				}
			],
			"name": "contributions",
			"outputs": [
				{
					"internalType": "uint256",
					"name": "",
					"type": "uint256"
				}
			],
			"stateMutability": "view",
			"type": "function"
		},
		{
			"inputs": [
				{
					"internalType": "string",
					"name": "title",
					"type": "string"
				},
				{
					"internalType": "uint256",
					"name": "targetFunding",
					"type": "uint256"
				},
				{
					"internalType": "uint256",
					"name": "startDate",
					"type": "uint256"
				},
				{
					"internalType": "uint256",
					"name": "endDate",
					"type": "uint256"
				}
			],
			"name": "createProject",
			"outputs": [],
			"stateMutability": "nonpayable",
			"type": "function"
		},
		{
			"inputs": [
				{
					"internalType": "uint256",
					"name": "projectId",
					"type": "uint256"
				}
			],
			"name": "deleteProject",
			"outputs": [],
			"stateMutability": "nonpayable",
			"type": "function"
		},
		{
			"inputs": [
				{
					"internalType": "uint256",
					"name": "projectId",
					"type": "uint256"
				},
				{
					"internalType": "string",
					"name": "title",
					"type": "string"
				},
				{
					"internalType": "uint256",
					"name": "targetFunding",
					"type": "uint256"
				},
				{
					"internalType": "uint256",
					"name": "startDate",
					"type": "uint256"
				},
				{
					"internalType": "uint256",
					"name": "endDate",
					"type": "uint256"
				}
			],
			"name": "editProject",
			"outputs": [],
			"stateMutability": "nonpayable",
			"type": "function"
		},
		{
			"inputs": [],
			"name": "getAllProjects",
			"outputs": [
				{
					"internalType": "uint256[]",
					"name": "",
					"type": "uint256[]"
				}
			],
			"stateMutability": "view",
			"type": "function"
		},
		{
			"inputs": [
				{
					"internalType": "uint256",
					"name": "projectId",
					"type": "uint256"
				}
			],
			"name": "getProject",
			"outputs": [
				{
					"components": [
						{
							"internalType": "uint256",
							"name": "id",
							"type": "uint256"
						},
						{
							"internalType": "string",
							"name": "title",
							"type": "string"
						},
						{
							"internalType": "uint256",
							"name": "targetFunding",
							"type": "uint256"
						},
						{
							"internalType": "uint256",
							"name": "currentFunding",
							"type": "uint256"
						},
						{
							"internalType": "uint256",
							"name": "startDate",
							"type": "uint256"
						},
						{
							"internalType": "uint256",
							"name": "endDate",
							"type": "uint256"
						},
						{
							"internalType": "address",
							"name": "owner",
							"type": "address"
						},
						{
							"internalType": "enum MockCrowdfunding.STATUS",
							"name": "status",
							"type": "uint8"
						}
					],
					"internalType": "struct MockCrowdfunding.Project",
					"name": "",
					"type": "tuple"
				}
			],
			"stateMutability": "view",
			"type": "function"
		},
		{
			"inputs": [
				{
					"internalType": "uint256",
					"name": "",
					"type": "uint256"
				}
			],
			"name": "projects",
			"outputs": [
				{
					"internalType": "uint256",
					"name": "id",
					"type": "uint256"
				},
				{
					"internalType": "string",
					"name": "title",
					"type": "string"
				},
				{
					"internalType": "uint256",
					"name": "targetFunding",
					"type": "uint256"
				},
				{
					"internalType": "uint256",
					"name": "currentFunding",
					"type": "uint256"
				},
				{
					"internalType": "uint256",
					"name": "startDate",
					"type": "uint256"
				},
				{
					"internalType": "uint256",
					"name": "endDate",
					"type": "uint256"
				},
				{
					"internalType": "address",
					"name": "owner",
					"type": "address"
				},
				{
					"internalType": "enum MockCrowdfunding.STATUS",
					"name": "status",
					"type": "uint8"
				}
			],
			"stateMutability": "view",
			"type": "function"
		}
	],
	"bytecode": "0x608060405234801561000f575f80fd5b506114ae8061001d5f395ff3fe608060405234801561000f575f80fd5b506004361061007b575f3560e01c8063610a6a2a11610059578063610a6a2a1461010257806380d038291461011e578063930770dd1461013c578063f0f3f2c8146101585761007b565b8063107046bd1461007f5780633d891f59146100b65780634cd0cb28146100e6575b5f80fd5b61009960048036038101906100949190610901565b610188565b6040516100ad989796959493929190610a77565b60405180910390f35b6100d060048036038101906100cb9190610b24565b61027e565b6040516100dd9190610b62565b60405180910390f35b61010060048036038101906100fb9190610901565b61029e565b005b61011c60048036038101906101179190610ca7565b61037e565b005b61012661050c565b6040516101339190610dde565b60405180910390f35b61015660048036038101906101519190610dfe565b6105cb565b005b610172600480360381019061016d9190610901565b6106da565b60405161017f9190610fa4565b60405180910390f35b6001602052805f5260405f205f91509050805f0154908060010180546101ad90610ff1565b80601f01602080910402602001604051908101604052809291908181526020018280546101d990610ff1565b80156102245780601f106101fb57610100808354040283529160200191610224565b820191905f5260205f20905b81548152906001019060200180831161020757829003601f168201915b505050505090806002015490806003015490806004015490806005015490806006015f9054906101000a900473ffffffffffffffffffffffffffffffffffffffff16908060060160149054906101000a900460ff16905088565b6002602052815f5260405f20602052805f5260405f205f91509150505481565b60015f8281526020019081526020015f206006015f9054906101000a900473ffffffffffffffffffffffffffffffffffffffff1673ffffffffffffffffffffffffffffffffffffffff163373ffffffffffffffffffffffffffffffffffffffff161461033f576040517f08c379a000000000000000000000000000000000000000000000000000000000815260040161033690611091565b60405180910390fd5b6001805f8381526020019081526020015f2060060160146101000a81548160ff0219169083600381111561037657610375610a04565b5b021790555050565b5f8081548092919061038f906110dc565b91905055505f805490506040518061010001604052808281526020018681526020018581526020015f81526020018481526020018381526020013373ffffffffffffffffffffffffffffffffffffffff1681526020015f60038111156103f8576103f7610a04565b5b81525060015f8381526020019081526020015f205f820151815f0155602082015181600101908161042991906112c0565b5060408201518160020155606082015181600301556080820151816004015560a0820151816005015560c0820151816006015f6101000a81548173ffffffffffffffffffffffffffffffffffffffff021916908373ffffffffffffffffffffffffffffffffffffffff16021790555060e08201518160060160146101000a81548160ff021916908360038111156104c3576104c2610a04565b5b0217905550905050807fc0c54fed07481d0998e1446b2c13759606bf4f26b78306307413ac4c4309aa8286336040516104fd92919061138f565b60405180910390a25050505050565b60605f805490505f8167ffffffffffffffff81111561052e5761052d610b83565b5b60405190808252806020026020018201604052801561055c5781602001602082028036833780820191505090505b5090505f80600190505b8381116105c15760015f8281526020019081526020015f205f0154838381518110610594576105936113bd565b5b60200260200101818152505081806105ab906110dc565b92505080806105b9906110dc565b915050610566565b5081935050505090565b60015f8681526020019081526020015f206006015f9054906101000a900473ffffffffffffffffffffffffffffffffffffffff1673ffffffffffffffffffffffffffffffffffffffff163373ffffffffffffffffffffffffffffffffffffffff161461066c576040517f08c379a00000000000000000000000000000000000000000000000000000000081526004016106639061145a565b60405180910390fd5b5f60015f8781526020019081526020015f2090505f8551111561069c578481600101908161069a91906112c0565b505b5f8411156106ae578381600201819055505b5f8311156106c0578281600401819055505b5f8211156106d2578181600501819055505b505050505050565b6106e2610857565b60015f8381526020019081526020015f20604051806101000160405290815f820154815260200160018201805461071890610ff1565b80601f016020809104026020016040519081016040528092919081815260200182805461074490610ff1565b801561078f5780601f106107665761010080835404028352916020019161078f565b820191905f5260205f20905b81548152906001019060200180831161077257829003601f168201915b5050505050815260200160028201548152602001600382015481526020016004820154815260200160058201548152602001600682015f9054906101000a900473ffffffffffffffffffffffffffffffffffffffff1673ffffffffffffffffffffffffffffffffffffffff1673ffffffffffffffffffffffffffffffffffffffff1681526020016006820160149054906101000a900460ff16600381111561083a57610839610a04565b5b600381111561084c5761084b610a04565b5b815250509050919050565b6040518061010001604052805f8152602001606081526020015f81526020015f81526020015f81526020015f81526020015f73ffffffffffffffffffffffffffffffffffffffff1681526020015f60038111156108b7576108b6610a04565b5b81525090565b5f604051905090565b5f80fd5b5f80fd5b5f819050919050565b6108e0816108ce565b81146108ea575f80fd5b50565b5f813590506108fb816108d7565b92915050565b5f60208284031215610916576109156108c6565b5b5f610923848285016108ed565b91505092915050565b610935816108ce565b82525050565b5f81519050919050565b5f82825260208201905092915050565b5f5b83811015610972578082015181840152602081019050610957565b5f8484015250505050565b5f601f19601f8301169050919050565b5f6109978261093b565b6109a18185610945565b93506109b1818560208601610955565b6109ba8161097d565b840191505092915050565b5f73ffffffffffffffffffffffffffffffffffffffff82169050919050565b5f6109ee826109c5565b9050919050565b6109fe816109e4565b82525050565b7f4e487b71000000000000000000000000000000000000000000000000000000005f52602160045260245ffd5b60048110610a4257610a41610a04565b5b50565b5f819050610a5282610a31565b919050565b5f610a6182610a45565b9050919050565b610a7181610a57565b82525050565b5f61010082019050610a8b5f83018b61092c565b8181036020830152610a9d818a61098d565b9050610aac604083018961092c565b610ab9606083018861092c565b610ac6608083018761092c565b610ad360a083018661092c565b610ae060c08301856109f5565b610aed60e0830184610a68565b9998505050505050505050565b610b03816109e4565b8114610b0d575f80fd5b50565b5f81359050610b1e81610afa565b92915050565b5f8060408385031215610b3a57610b396108c6565b5b5f610b47858286016108ed565b9250506020610b5885828601610b10565b9150509250929050565b5f602082019050610b755f83018461092c565b92915050565b5f80fd5b5f80fd5b7f4e487b71000000000000000000000000000000000000000000000000000000005f52604160045260245ffd5b610bb98261097d565b810181811067ffffffffffffffff82111715610bd857610bd7610b83565b5b80604052505050565b5f610bea6108bd565b9050610bf68282610bb0565b919050565b5f67ffffffffffffffff821115610c1557610c14610b83565b5b610c1e8261097d565b9050602081019050919050565b828183375f83830152505050565b5f610c4b610c4684610bfb565b610be1565b905082815260208101848484011115610c6757610c66610b7f565b5b610c72848285610c2b565b509392505050565b5f82601f830112610c8e57610c8d610b7b565b5b8135610c9e848260208601610c39565b91505092915050565b5f805f8060808587031215610cbf57610cbe6108c6565b5b5f85013567ffffffffffffffff811115610cdc57610cdb6108ca565b5b610ce887828801610c7a565b9450506020610cf9878288016108ed565b9350506040610d0a878288016108ed565b9250506060610d1b878288016108ed565b91505092959194509250565b5f81519050919050565b5f82825260208201905092915050565b5f819050602082019050919050565b610d59816108ce565b82525050565b5f610d6a8383610d50565b60208301905092915050565b5f602082019050919050565b5f610d8c82610d27565b610d968185610d31565b9350610da183610d41565b805f5b83811015610dd1578151610db88882610d5f565b9750610dc383610d76565b925050600181019050610da4565b5085935050505092915050565b5f6020820190508181035f830152610df68184610d82565b905092915050565b5f805f805f60a08688031215610e1757610e166108c6565b5b5f610e24888289016108ed565b955050602086013567ffffffffffffffff811115610e4557610e446108ca565b5b610e5188828901610c7a565b9450506040610e62888289016108ed565b9350506060610e73888289016108ed565b9250506080610e84888289016108ed565b9150509295509295909350565b5f82825260208201905092915050565b5f610eab8261093b565b610eb58185610e91565b9350610ec5818560208601610955565b610ece8161097d565b840191505092915050565b610ee2816109e4565b82525050565b610ef181610a57565b82525050565b5f61010083015f830151610f0d5f860182610d50565b5060208301518482036020860152610f258282610ea1565b9150506040830151610f3a6040860182610d50565b506060830151610f4d6060860182610d50565b506080830151610f606080860182610d50565b5060a0830151610f7360a0860182610d50565b5060c0830151610f8660c0860182610ed9565b5060e0830151610f9960e0860182610ee8565b508091505092915050565b5f6020820190508181035f830152610fbc8184610ef7565b905092915050565b7f4e487b71000000000000000000000000000000000000000000000000000000005f52602260045260245ffd5b5f600282049050600182168061100857607f821691505b60208210810361101b5761101a610fc4565b5b50919050565b7f4f6e6c7920746865206f776e65722063616e2064656c657465207468652070725f8201527f6f6a6563742e0000000000000000000000000000000000000000000000000000602082015250565b5f61107b602683610945565b915061108682611021565b604082019050919050565b5f6020820190508181035f8301526110a88161106f565b9050919050565b7f4e487b71000000000000000000000000000000000000000000000000000000005f52601160045260245ffd5b5f6110e6826108ce565b91507fffffffffffffffffffffffffffffffffffffffffffffffffffffffffffffffff8203611118576111176110af565b5b600182019050919050565b5f819050815f5260205f209050919050565b5f6020601f8301049050919050565b5f82821b905092915050565b5f6008830261117f7fffffffffffffffffffffffffffffffffffffffffffffffffffffffffffffffff82611144565b6111898683611144565b95508019841693508086168417925050509392505050565b5f819050919050565b5f6111c46111bf6111ba846108ce565b6111a1565b6108ce565b9050919050565b5f819050919050565b6111dd836111aa565b6111f16111e9826111cb565b848454611150565b825550505050565b5f90565b6112056111f9565b6112108184846111d4565b505050565b5b81811015611233576112285f826111fd565b600181019050611216565b5050565b601f8211156112785761124981611123565b61125284611135565b81016020851015611261578190505b61127561126d85611135565b830182611215565b50505b505050565b5f82821c905092915050565b5f6112985f198460080261127d565b1980831691505092915050565b5f6112b08383611289565b9150826002028217905092915050565b6112c98261093b565b67ffffffffffffffff8111156112e2576112e1610b83565b5b6112ec8254610ff1565b6112f7828285611237565b5f60209050601f831160018114611328575f8415611316578287015190505b61132085826112a5565b865550611387565b601f19841661133686611123565b5f5b8281101561135d57848901518255600182019150602085019450602081019050611338565b8683101561137a5784890151611376601f891682611289565b8355505b6001600288020188555050505b505050505050565b5f6040820190508181035f8301526113a7818561098d565b90506113b660208301846109f5565b9392505050565b7f4e487b71000000000000000000000000000000000000000000000000000000005f52603260045260245ffd5b7f4f6e6c7920746865206f776e65722063616e2065646974207468652070726f6a5f8201527f6563742e00000000000000000000000000000000000000000000000000000000602082015250565b5f611444602483610945565b915061144f826113ea565b604082019050919050565b5f6020820190508181035f83015261147181611438565b905091905056fea26469706673582212207a9811fe283d138f09f4663762e38d7ac516e03eeda360c447d6d7fd9b97686f64736f6c63430008140033",
	"linkReferences": {},
	"deployedLinkReferences": {}
}