{
	"_format": "hh-sol-artifact-1",
	"contractName": "Crowdfunding",
	"sourceName": "contracts/Crowdfunding.sol",
	"abi": [
		{
			"inputs": [
				{
					"internalType": "contract IERC20",
					"name": "tokenAddress",
					"type": "address"
				},
				{
					"internalType": "address",
					"name": "initialOwner",
					"type": "address"
				}
			],
			"stateMutability": "nonpayable",
			"type": "constructor"
		},
		{
			"inputs": [
				{
					"internalType": "address",
					"name": "owner",
					"type": "address"
				}
			],
			"name": "OwnableInvalidOwner",
			"type": "error"
		},
		{
			"inputs": [
				{
					"internalType": "address",
					"name": "account",
					"type": "address"
				}
			],
			"name": "OwnableUnauthorizedAccount",
			"type": "error"
		},
		{
			"anonymous": false,
			"inputs": [
				{
					"indexed": true,
					"internalType": "uint256",
					"name": "projectId",
					"type": "uint256"
				},
				{
					"indexed": false,
					"internalType": "uint256",
					"name": "amount",
					"type": "uint256"
				},
				{
					"indexed": false,
					"internalType": "address",
					"name": "contributor",
					"type": "address"
				}
			],
			"name": "ContributionMade",
			"type": "event"
		},
		{
			"anonymous": false,
			"inputs": [
				{
					"indexed": true,
					"internalType": "uint256",
					"name": "projectId",
					"type": "uint256"
				},
				{
					"indexed": false,
					"internalType": "uint256",
					"name": "amount",
					"type": "uint256"
				},
				{
					"indexed": false,
					"internalType": "address",
					"name": "contributor",
					"type": "address"
				}
			],
			"name": "ContributionRefunded",
			"type": "event"
		},
		{
			"anonymous": false,
			"inputs": [
				{
					"indexed": true,
					"internalType": "address",
					"name": "previousOwner",
					"type": "address"
				},
				{
					"indexed": true,
					"internalType": "address",
					"name": "newOwner",
					"type": "address"
				}
			],
			"name": "OwnershipTransferred",
			"type": "event"
		},
		{
			"anonymous": false,
			"inputs": [
				{
					"indexed": true,
					"internalType": "uint256",
					"name": "projectId",
					"type": "uint256"
				},
				{
					"indexed": false,
					"internalType": "string",
					"name": "title",
					"type": "string"
				},
				{
					"indexed": false,
					"internalType": "address",
					"name": "owner",
					"type": "address"
				}
			],
			"name": "ProjectCreated",
			"type": "event"
		},
		{
			"inputs": [
				{
					"internalType": "uint256",
					"name": "projectId",
					"type": "uint256"
				},
				{
					"internalType": "uint256",
					"name": "amount",
					"type": "uint256"
				}
			],
			"name": "contribute",
			"outputs": [],
			"stateMutability": "nonpayable",
			"type": "function"
		},
		{
			"inputs": [
				{
					"internalType": "uint256",
					"name": "",
					"type": "uint256"
				},
				{
					"internalType": "address",
					"name": "",
					"type": "address"
				}
			],
			"name": "contributions",
			"outputs": [
				{
					"internalType": "uint256",
					"name": "",
					"type": "uint256"
				}
			],
			"stateMutability": "view",
			"type": "function"
		},
		{
			"inputs": [
				{
					"internalType": "string",
					"name": "title",
					"type": "string"
				},
				{
					"internalType": "string",
					"name": "description",
					"type": "string"
				},
				{
					"internalType": "uint256",
					"name": "targetFunding",
					"type": "uint256"
				},
				{
					"internalType": "uint256",
					"name": "startDate",
					"type": "uint256"
				},
				{
					"internalType": "uint256",
					"name": "endDate",
					"type": "uint256"
				}
			],
			"name": "createProject",
			"outputs": [],
			"stateMutability": "nonpayable",
			"type": "function"
		},
		{
			"inputs": [
				{
					"internalType": "uint256",
					"name": "projectId",
					"type": "uint256"
				}
			],
			"name": "deleteProject",
			"outputs": [],
			"stateMutability": "nonpayable",
			"type": "function"
		},
		{
			"inputs": [
				{
					"internalType": "uint256",
					"name": "projectId",
					"type": "uint256"
				},
				{
					"internalType": "string",
					"name": "title",
					"type": "string"
				},
				{
					"internalType": "string",
					"name": "description",
					"type": "string"
				},
				{
					"internalType": "uint256",
					"name": "targetFunding",
					"type": "uint256"
				},
				{
					"internalType": "uint256",
					"name": "startDate",
					"type": "uint256"
				},
				{
					"internalType": "uint256",
					"name": "endDate",
					"type": "uint256"
				}
			],
			"name": "editProject",
			"outputs": [],
			"stateMutability": "nonpayable",
			"type": "function"
		},
		{
			"inputs": [],
			"name": "getAllProjects",
			"outputs": [
				{
					"internalType": "uint256[]",
					"name": "",
					"type": "uint256[]"
				}
			],
			"stateMutability": "view",
			"type": "function"
		},
		{
			"inputs": [
				{
					"internalType": "uint256",
					"name": "projectId",
					"type": "uint256"
				}
			],
			"name": "getProject",
			"outputs": [
				{
					"components": [
						{
							"internalType": "uint256",
							"name": "id",
							"type": "uint256"
						},
						{
							"internalType": "string",
							"name": "title",
							"type": "string"
						},
						{
							"internalType": "string",
							"name": "description",
							"type": "string"
						},
						{
							"internalType": "uint256",
							"name": "targetFunding",
							"type": "uint256"
						},
						{
							"internalType": "uint256",
							"name": "currentFunding",
							"type": "uint256"
						},
						{
							"internalType": "uint256",
							"name": "startDate",
							"type": "uint256"
						},
						{
							"internalType": "uint256",
							"name": "endDate",
							"type": "uint256"
						},
						{
							"internalType": "address",
							"name": "owner",
							"type": "address"
						},
						{
							"internalType": "enum Crowdfunding.STATUS",
							"name": "status",
							"type": "uint8"
						}
					],
					"internalType": "struct Crowdfunding.Project",
					"name": "",
					"type": "tuple"
				}
			],
			"stateMutability": "view",
			"type": "function"
		},
		{
			"inputs": [],
			"name": "owner",
			"outputs": [
				{
					"internalType": "address",
					"name": "",
					"type": "address"
				}
			],
			"stateMutability": "view",
			"type": "function"
		},
		{
			"inputs": [
				{
					"internalType": "uint256",
					"name": "",
					"type": "uint256"
				}
			],
			"name": "projects",
			"outputs": [
				{
					"internalType": "uint256",
					"name": "id",
					"type": "uint256"
				},
				{
					"internalType": "string",
					"name": "title",
					"type": "string"
				},
				{
					"internalType": "string",
					"name": "description",
					"type": "string"
				},
				{
					"internalType": "uint256",
					"name": "targetFunding",
					"type": "uint256"
				},
				{
					"internalType": "uint256",
					"name": "currentFunding",
					"type": "uint256"
				},
				{
					"internalType": "uint256",
					"name": "startDate",
					"type": "uint256"
				},
				{
					"internalType": "uint256",
					"name": "endDate",
					"type": "uint256"
				},
				{
					"internalType": "address",
					"name": "owner",
					"type": "address"
				},
				{
					"internalType": "enum Crowdfunding.STATUS",
					"name": "status",
					"type": "uint8"
				}
			],
			"stateMutability": "view",
			"type": "function"
		},
		{
			"inputs": [
				{
					"internalType": "uint256",
					"name": "projectId",
					"type": "uint256"
				}
			],
			"name": "refund",
			"outputs": [],
			"stateMutability": "nonpayable",
			"type": "function"
		},
		{
			"inputs": [],
			"name": "renounceOwnership",
			"outputs": [],
			"stateMutability": "nonpayable",
			"type": "function"
		},
		{
			"inputs": [
				{
					"internalType": "address",
					"name": "newOwner",
					"type": "address"
				}
			],
			"name": "transferOwnership",
			"outputs": [],
			"stateMutability": "nonpayable",
			"type": "function"
		}
	],
	"bytecode": "0x608060405234801562000010575f80fd5b50604051620025a0380380620025a083398181016040528101906200003691906200026c565b805f73ffffffffffffffffffffffffffffffffffffffff168173ffffffffffffffffffffffffffffffffffffffff1603620000aa575f6040517f1e4fbdf7000000000000000000000000000000000000000000000000000000008152600401620000a19190620002c2565b60405180910390fd5b620000bb816200010460201b60201c565b508160015f6101000a81548173ffffffffffffffffffffffffffffffffffffffff021916908373ffffffffffffffffffffffffffffffffffffffff1602179055505050620002dd565b5f805f9054906101000a900473ffffffffffffffffffffffffffffffffffffffff169050815f806101000a81548173ffffffffffffffffffffffffffffffffffffffff021916908373ffffffffffffffffffffffffffffffffffffffff1602179055508173ffffffffffffffffffffffffffffffffffffffff168173ffffffffffffffffffffffffffffffffffffffff167f8be0079c531659141344cd1fd0a4f28419497f9722a3daafe3b4186f6b6457e060405160405180910390a35050565b5f80fd5b5f73ffffffffffffffffffffffffffffffffffffffff82169050919050565b5f620001f482620001c9565b9050919050565b5f6200020782620001e8565b9050919050565b6200021981620001fb565b811462000224575f80fd5b50565b5f8151905062000237816200020e565b92915050565b6200024881620001e8565b811462000253575f80fd5b50565b5f8151905062000266816200023d565b92915050565b5f8060408385031215620002855762000284620001c5565b5b5f620002948582860162000227565b9250506020620002a78582860162000256565b9150509250929050565b620002bc81620001e8565b82525050565b5f602082019050620002d75f830184620002b1565b92915050565b6122b580620002eb5f395ff3fe608060405234801561000f575f80fd5b50600436106100b2575f3560e01c80638c5909171161006f5780638c5909171461017e5780638da5cb5b1461019a578063bd481cf9146101b8578063f0f3f2c8146101d4578063f2fde38b14610204578063f81bf60114610220576100b2565b8063107046bd146100b6578063278ecde1146100ee5780633d891f591461010a5780634cd0cb281461013a578063715018a61461015657806380d0382914610160575b5f80fd5b6100d060048036038101906100cb9190611271565b61023c565b6040516100e5999897969594939291906113e7565b60405180910390f35b61010860048036038101906101039190611271565b6103be565b005b610124600480360381019061011f91906114aa565b610654565b60405161013191906114e8565b60405180910390f35b610154600480360381019061014f9190611271565b610674565b005b61015e610755565b005b610168610768565b60405161017591906115b8565b60405180910390f35b610198600480360381019061019391906115d8565b610828565b005b6101a2610adf565b6040516101af9190611616565b60405180910390f35b6101d260048036038101906101cd919061175b565b610b06565b005b6101ee60048036038101906101e99190611271565b610c32565b6040516101fb919061194b565b60405180910390f35b61021e6004803603810190610219919061196b565b610e3f565b005b61023a60048036038101906102359190611996565b610ec3565b005b6003602052805f5260405f205f91509050805f01549080600101805461026190611a72565b80601f016020809104026020016040519081016040528092919081815260200182805461028d90611a72565b80156102d85780601f106102af576101008083540402835291602001916102d8565b820191905f5260205f20905b8154815290600101906020018083116102bb57829003601f168201915b5050505050908060020180546102ed90611a72565b80601f016020809104026020016040519081016040528092919081815260200182805461031990611a72565b80156103645780601f1061033b57610100808354040283529160200191610364565b820191905f5260205f20905b81548152906001019060200180831161034757829003601f168201915b505050505090806003015490806004015490806005015490806006015490806007015f9054906101000a900473ffffffffffffffffffffffffffffffffffffffff16908060070160149054906101000a900460ff16905089565b5f60035f8381526020019081526020015f2090506003808111156103e5576103e4611374565b5b8160070160149054906101000a900460ff16600381111561040957610408611374565b5b14806104185750806006015442115b610457576040517f08c379a000000000000000000000000000000000000000000000000000000000815260040161044e90611aec565b60405180910390fd5b5f60045f8481526020019081526020015f205f3373ffffffffffffffffffffffffffffffffffffffff1673ffffffffffffffffffffffffffffffffffffffff1681526020019081526020015f205490505f81116104e9576040517f08c379a00000000000000000000000000000000000000000000000000000000081526004016104e090611b54565b60405180910390fd5b5f60045f8581526020019081526020015f205f3373ffffffffffffffffffffffffffffffffffffffff1673ffffffffffffffffffffffffffffffffffffffff1681526020019081526020015f208190555060015f9054906101000a900473ffffffffffffffffffffffffffffffffffffffff1673ffffffffffffffffffffffffffffffffffffffff1663a9059cbb33836040518363ffffffff1660e01b8152600401610596929190611b72565b6020604051808303815f875af11580156105b2573d5f803e3d5ffd5b505050506040513d601f19601f820116820180604052508101906105d69190611bce565b610615576040517f08c379a000000000000000000000000000000000000000000000000000000000815260040161060c90611c43565b60405180910390fd5b827f232bf2213879e79f5b2fa9cf07aad94aa0acac7b3c93bdfe74a545d47a1b02758233604051610647929190611c61565b60405180910390a2505050565b6004602052815f5260405f20602052805f5260405f205f91509150505481565b60035f8281526020019081526020015f206007015f9054906101000a900473ffffffffffffffffffffffffffffffffffffffff1673ffffffffffffffffffffffffffffffffffffffff163373ffffffffffffffffffffffffffffffffffffffff1614610715576040517f08c379a000000000000000000000000000000000000000000000000000000000815260040161070c90611cf8565b60405180910390fd5b600160035f8381526020019081526020015f2060070160146101000a81548160ff0219169083600381111561074d5761074c611374565b5b021790555050565b61075d611071565b6107665f6110f8565b565b60605f60025490505f8167ffffffffffffffff81111561078b5761078a611637565b5b6040519080825280602002602001820160405280156107b95781602001602082028036833780820191505090505b5090505f80600190505b83811161081e5760035f8281526020019081526020015f205f01548383815181106107f1576107f0611d16565b5b602002602001018181525050818061080890611d70565b925050808061081690611d70565b9150506107c3565b5081935050505090565b5f60035f8481526020019081526020015f2090505f600381111561084f5761084e611374565b5b8160070160149054906101000a900460ff16600381111561087357610872611374565b5b146108b3576040517f08c379a00000000000000000000000000000000000000000000000000000000081526004016108aa90611e01565b60405180910390fd5b806005015442101580156108cb575080600601544211155b61090a576040517f08c379a000000000000000000000000000000000000000000000000000000000815260040161090190611e69565b60405180910390fd5b60015f9054906101000a900473ffffffffffffffffffffffffffffffffffffffff1673ffffffffffffffffffffffffffffffffffffffff166323b872dd3330856040518463ffffffff1660e01b815260040161096893929190611e87565b6020604051808303815f875af1158015610984573d5f803e3d5ffd5b505050506040513d601f19601f820116820180604052508101906109a89190611bce565b6109e7576040517f08c379a00000000000000000000000000000000000000000000000000000000081526004016109de90611f06565b60405180910390fd5b81816004015f8282546109fa9190611f24565b925050819055508160045f8581526020019081526020015f205f3373ffffffffffffffffffffffffffffffffffffffff1673ffffffffffffffffffffffffffffffffffffffff1681526020019081526020015f205f828254610a5c9190611f24565b92505081905550827f7c50e76f3eff5098fcf915218e219a359f40f4c150e1a6796920587d44923cb48333604051610a95929190611c61565b60405180910390a28060030154816004015410610ada5760028160070160146101000a81548160ff02191690836003811115610ad457610ad3611374565b5b02179055505b505050565b5f805f9054906101000a900473ffffffffffffffffffffffffffffffffffffffff16905090565b60035f8781526020019081526020015f206007015f9054906101000a900473ffffffffffffffffffffffffffffffffffffffff1673ffffffffffffffffffffffffffffffffffffffff163373ffffffffffffffffffffffffffffffffffffffff1614610ba7576040517f08c379a0000000000000000000000000000000000000000000000000000000008152600401610b9e90611fc7565b60405180910390fd5b5f60035f8881526020019081526020015f2090505f86511115610bd75785816001019081610bd59190612182565b505b5f85511115610bf35784816002019081610bf19190612182565b505b5f841115610c05578381600301819055505b5f831115610c17578281600501819055505b5f821115610c29578181600601819055505b50505050505050565b610c3a6111c0565b60035f8381526020019081526020015f20604051806101200160405290815f8201548152602001600182018054610c7090611a72565b80601f0160208091040260200160405190810160405280929190818152602001828054610c9c90611a72565b8015610ce75780601f10610cbe57610100808354040283529160200191610ce7565b820191905f5260205f20905b815481529060010190602001808311610cca57829003601f168201915b50505050508152602001600282018054610d0090611a72565b80601f0160208091040260200160405190810160405280929190818152602001828054610d2c90611a72565b8015610d775780601f10610d4e57610100808354040283529160200191610d77565b820191905f5260205f20905b815481529060010190602001808311610d5a57829003601f168201915b5050505050815260200160038201548152602001600482015481526020016005820154815260200160068201548152602001600782015f9054906101000a900473ffffffffffffffffffffffffffffffffffffffff1673ffffffffffffffffffffffffffffffffffffffff1673ffffffffffffffffffffffffffffffffffffffff1681526020016007820160149054906101000a900460ff166003811115610e2257610e21611374565b5b6003811115610e3457610e33611374565b5b815250509050919050565b610e47611071565b5f73ffffffffffffffffffffffffffffffffffffffff168173ffffffffffffffffffffffffffffffffffffffff1603610eb7575f6040517f1e4fbdf7000000000000000000000000000000000000000000000000000000008152600401610eae9190611616565b60405180910390fd5b610ec0816110f8565b50565b60025f815480929190610ed590611d70565b91905055505f60025490506040518061012001604052808281526020018781526020018681526020018581526020015f81526020018481526020018381526020013373ffffffffffffffffffffffffffffffffffffffff1681526020015f6003811115610f4557610f44611374565b5b81525060035f8381526020019081526020015f205f820151815f01556020820151816001019081610f769190612182565b506040820151816002019081610f8c9190612182565b50606082015181600301556080820151816004015560a0820151816005015560c0820151816006015560e0820151816007015f6101000a81548173ffffffffffffffffffffffffffffffffffffffff021916908373ffffffffffffffffffffffffffffffffffffffff1602179055506101008201518160070160146101000a81548160ff0219169083600381111561102757611026611374565b5b0217905550905050807fc0c54fed07481d0998e1446b2c13759606bf4f26b78306307413ac4c4309aa828733604051611061929190612251565b60405180910390a2505050505050565b6110796111b9565b73ffffffffffffffffffffffffffffffffffffffff16611097610adf565b73ffffffffffffffffffffffffffffffffffffffff16146110f6576110ba6111b9565b6040517f118cdaa70000000000000000000000000000000000000000000000000000000081526004016110ed9190611616565b60405180910390fd5b565b5f805f9054906101000a900473ffffffffffffffffffffffffffffffffffffffff169050815f806101000a81548173ffffffffffffffffffffffffffffffffffffffff021916908373ffffffffffffffffffffffffffffffffffffffff1602179055508173ffffffffffffffffffffffffffffffffffffffff168173ffffffffffffffffffffffffffffffffffffffff167f8be0079c531659141344cd1fd0a4f28419497f9722a3daafe3b4186f6b6457e060405160405180910390a35050565b5f33905090565b6040518061012001604052805f815260200160608152602001606081526020015f81526020015f81526020015f81526020015f81526020015f73ffffffffffffffffffffffffffffffffffffffff1681526020015f600381111561122757611226611374565b5b81525090565b5f604051905090565b5f80fd5b5f80fd5b5f819050919050565b6112508161123e565b811461125a575f80fd5b50565b5f8135905061126b81611247565b92915050565b5f6020828403121561128657611285611236565b5b5f6112938482850161125d565b91505092915050565b6112a58161123e565b82525050565b5f81519050919050565b5f82825260208201905092915050565b5f5b838110156112e25780820151818401526020810190506112c7565b5f8484015250505050565b5f601f19601f8301169050919050565b5f611307826112ab565b61131181856112b5565b93506113218185602086016112c5565b61132a816112ed565b840191505092915050565b5f73ffffffffffffffffffffffffffffffffffffffff82169050919050565b5f61135e82611335565b9050919050565b61136e81611354565b82525050565b7f4e487b71000000000000000000000000000000000000000000000000000000005f52602160045260245ffd5b600481106113b2576113b1611374565b5b50565b5f8190506113c2826113a1565b919050565b5f6113d1826113b5565b9050919050565b6113e1816113c7565b82525050565b5f610120820190506113fb5f83018c61129c565b818103602083015261140d818b6112fd565b90508181036040830152611421818a6112fd565b9050611430606083018961129c565b61143d608083018861129c565b61144a60a083018761129c565b61145760c083018661129c565b61146460e0830185611365565b6114726101008301846113d8565b9a9950505050505050505050565b61148981611354565b8114611493575f80fd5b50565b5f813590506114a481611480565b92915050565b5f80604083850312156114c0576114bf611236565b5b5f6114cd8582860161125d565b92505060206114de85828601611496565b9150509250929050565b5f6020820190506114fb5f83018461129c565b92915050565b5f81519050919050565b5f82825260208201905092915050565b5f819050602082019050919050565b6115338161123e565b82525050565b5f611544838361152a565b60208301905092915050565b5f602082019050919050565b5f61156682611501565b611570818561150b565b935061157b8361151b565b805f5b838110156115ab5781516115928882611539565b975061159d83611550565b92505060018101905061157e565b5085935050505092915050565b5f6020820190508181035f8301526115d0818461155c565b905092915050565b5f80604083850312156115ee576115ed611236565b5b5f6115fb8582860161125d565b925050602061160c8582860161125d565b9150509250929050565b5f6020820190506116295f830184611365565b92915050565b5f80fd5b5f80fd5b7f4e487b71000000000000000000000000000000000000000000000000000000005f52604160045260245ffd5b61166d826112ed565b810181811067ffffffffffffffff8211171561168c5761168b611637565b5b80604052505050565b5f61169e61122d565b90506116aa8282611664565b919050565b5f67ffffffffffffffff8211156116c9576116c8611637565b5b6116d2826112ed565b9050602081019050919050565b828183375f83830152505050565b5f6116ff6116fa846116af565b611695565b90508281526020810184848401111561171b5761171a611633565b5b6117268482856116df565b509392505050565b5f82601f8301126117425761174161162f565b5b81356117528482602086016116ed565b91505092915050565b5f805f805f8060c0878903121561177557611774611236565b5b5f61178289828a0161125d565b965050602087013567ffffffffffffffff8111156117a3576117a261123a565b5b6117af89828a0161172e565b955050604087013567ffffffffffffffff8111156117d0576117cf61123a565b5b6117dc89828a0161172e565b94505060606117ed89828a0161125d565b93505060806117fe89828a0161125d565b92505060a061180f89828a0161125d565b9150509295509295509295565b5f82825260208201905092915050565b5f611836826112ab565b611840818561181c565b93506118508185602086016112c5565b611859816112ed565b840191505092915050565b61186d81611354565b82525050565b61187c816113c7565b82525050565b5f61012083015f8301516118985f86018261152a565b50602083015184820360208601526118b0828261182c565b915050604083015184820360408601526118ca828261182c565b91505060608301516118df606086018261152a565b5060808301516118f2608086018261152a565b5060a083015161190560a086018261152a565b5060c083015161191860c086018261152a565b5060e083015161192b60e0860182611864565b50610100830151611940610100860182611873565b508091505092915050565b5f6020820190508181035f8301526119638184611882565b905092915050565b5f602082840312156119805761197f611236565b5b5f61198d84828501611496565b91505092915050565b5f805f805f60a086880312156119af576119ae611236565b5b5f86013567ffffffffffffffff8111156119cc576119cb61123a565b5b6119d88882890161172e565b955050602086013567ffffffffffffffff8111156119f9576119f861123a565b5b611a058882890161172e565b9450506040611a168882890161125d565b9350506060611a278882890161125d565b9250506080611a388882890161125d565b9150509295509295909350565b7f4e487b71000000000000000000000000000000000000000000000000000000005f52602260045260245ffd5b5f6002820490506001821680611a8957607f821691505b602082108103611a9c57611a9b611a45565b5b50919050565b7f526566756e6473206e6f7420616c6c6f776564000000000000000000000000005f82015250565b5f611ad66013836112b5565b9150611ae182611aa2565b602082019050919050565b5f6020820190508181035f830152611b0381611aca565b9050919050565b7f4e6f20636f6e747269627574696f6e7320746f20726566756e640000000000005f82015250565b5f611b3e601a836112b5565b9150611b4982611b0a565b602082019050919050565b5f6020820190508181035f830152611b6b81611b32565b9050919050565b5f604082019050611b855f830185611365565b611b92602083018461129c565b9392505050565b5f8115159050919050565b611bad81611b99565b8114611bb7575f80fd5b50565b5f81519050611bc881611ba4565b92915050565b5f60208284031215611be357611be2611236565b5b5f611bf084828501611bba565b91505092915050565b7f526566756e64206661696c6564000000000000000000000000000000000000005f82015250565b5f611c2d600d836112b5565b9150611c3882611bf9565b602082019050919050565b5f6020820190508181035f830152611c5a81611c21565b9050919050565b5f604082019050611c745f83018561129c565b611c816020830184611365565b9392505050565b7f4f6e6c7920746865206f776e65722063616e2064656c657465207468652070725f8201527f6f6a6563742e0000000000000000000000000000000000000000000000000000602082015250565b5f611ce26026836112b5565b9150611ced82611c88565b604082019050919050565b5f6020820190508181035f830152611d0f81611cd6565b9050919050565b7f4e487b71000000000000000000000000000000000000000000000000000000005f52603260045260245ffd5b7f4e487b71000000000000000000000000000000000000000000000000000000005f52601160045260245ffd5b5f611d7a8261123e565b91507fffffffffffffffffffffffffffffffffffffffffffffffffffffffffffffffff8203611dac57611dab611d43565b5b600182019050919050565b7f50726f6a656374206d75737420626520616374697665000000000000000000005f82015250565b5f611deb6016836112b5565b9150611df682611db7565b602082019050919050565b5f6020820190508181035f830152611e1881611ddf565b9050919050565b7f50726f6a656374206e6f7420696e2066756e64696e6720706572696f640000005f82015250565b5f611e53601d836112b5565b9150611e5e82611e1f565b602082019050919050565b5f6020820190508181035f830152611e8081611e47565b9050919050565b5f606082019050611e9a5f830186611365565b611ea76020830185611365565b611eb4604083018461129c565b949350505050565b7f546f6b656e207472616e73666572206661696c656400000000000000000000005f82015250565b5f611ef06015836112b5565b9150611efb82611ebc565b602082019050919050565b5f6020820190508181035f830152611f1d81611ee4565b9050919050565b5f611f2e8261123e565b9150611f398361123e565b9250828201905080821115611f5157611f50611d43565b5b92915050565b7f4f6e6c7920746865206f776e65722063616e2065646974207468652070726f6a5f8201527f6563742e00000000000000000000000000000000000000000000000000000000602082015250565b5f611fb16024836112b5565b9150611fbc82611f57565b604082019050919050565b5f6020820190508181035f830152611fde81611fa5565b9050919050565b5f819050815f5260205f209050919050565b5f6020601f8301049050919050565b5f82821b905092915050565b5f600883026120417fffffffffffffffffffffffffffffffffffffffffffffffffffffffffffffffff82612006565b61204b8683612006565b95508019841693508086168417925050509392505050565b5f819050919050565b5f61208661208161207c8461123e565b612063565b61123e565b9050919050565b5f819050919050565b61209f8361206c565b6120b36120ab8261208d565b848454612012565b825550505050565b5f90565b6120c76120bb565b6120d2818484612096565b505050565b5b818110156120f5576120ea5f826120bf565b6001810190506120d8565b5050565b601f82111561213a5761210b81611fe5565b61211484611ff7565b81016020851015612123578190505b61213761212f85611ff7565b8301826120d7565b50505b505050565b5f82821c905092915050565b5f61215a5f198460080261213f565b1980831691505092915050565b5f612172838361214b565b9150826002028217905092915050565b61218b826112ab565b67ffffffffffffffff8111156121a4576121a3611637565b5b6121ae8254611a72565b6121b98282856120f9565b5f60209050601f8311600181146121ea575f84156121d8578287015190505b6121e28582612167565b865550612249565b601f1984166121f886611fe5565b5f5b8281101561221f578489015182556001820191506020850194506020810190506121fa565b8683101561223c5784890151612238601f89168261214b565b8355505b6001600288020188555050505b505050505050565b5f6040820190508181035f83015261226981856112fd565b90506122786020830184611365565b939250505056fea264697066735822122008e1563224beda8dca3109ac66cbba18fe174d361325b6cc7acb63d3bf5e396364736f6c63430008140033",
	"linkReferences": {},
	"deployedLinkReferences": {}
}